{
  "_format": "hh-sol-artifact-1",
  "contractName": "Nareswara",
  "sourceName": "contracts/Nareswara.sol",
  "abi": [
    {
      "anonymous": false,
      "inputs": [
        {
          "components": [
            {
              "internalType": "string",
              "name": "cid",
              "type": "string"
            },
            {
              "internalType": "address",
              "name": "userAddress",
              "type": "address"
            },
            {
              "internalType": "address",
              "name": "issuerAddress",
              "type": "address"
            }
          ],
          "indexed": false,
          "internalType": "struct Nareswara.Certificate[]",
          "name": "certificates",
          "type": "tuple[]"
        }
      ],
      "name": "CertificateAdded",
      "type": "event"
    },
    {
      "anonymous": false,
      "inputs": [
        {
          "indexed": false,
          "internalType": "address",
          "name": "id",
          "type": "address"
        },
        {
          "indexed": false,
          "internalType": "string",
          "name": "eventName",
          "type": "string"
        }
      ],
      "name": "EventAdded",
      "type": "event"
    },
    {
      "anonymous": false,
      "inputs": [
        {
          "indexed": false,
          "internalType": "address",
          "name": "id",
          "type": "address"
        },
        {
          "indexed": false,
          "internalType": "string",
          "name": "name",
          "type": "string"
        },
        {
          "indexed": false,
          "internalType": "string",
          "name": "email",
          "type": "string"
        }
      ],
      "name": "OrganizationAdded",
      "type": "event"
    },
    {
      "anonymous": false,
      "inputs": [
        {
          "indexed": false,
          "internalType": "string[]",
          "name": "participants",
          "type": "string[]"
        }
      ],
      "name": "ParticipantAdded",
      "type": "event"
    },
    {
      "anonymous": false,
      "inputs": [
        {
          "indexed": false,
          "internalType": "address",
          "name": "userAddress",
          "type": "address"
        },
        {
          "indexed": false,
          "internalType": "string",
          "name": "name",
          "type": "string"
        },
        {
          "indexed": false,
          "internalType": "string",
          "name": "email",
          "type": "string"
        }
      ],
      "name": "UserAdded",
      "type": "event"
    },
    {
      "inputs": [
        {
          "internalType": "address",
          "name": "_organizationAddress",
          "type": "address"
        },
        {
          "internalType": "string",
          "name": "_eventName",
          "type": "string"
        },
        {
          "internalType": "string[]",
          "name": "_participants",
          "type": "string[]"
        }
      ],
      "name": "addEvent",
      "outputs": [],
      "stateMutability": "nonpayable",
      "type": "function"
    },
    {
      "inputs": [
        {
          "internalType": "address",
          "name": "_organizationAddress",
          "type": "address"
        },
        {
          "internalType": "string",
          "name": "_name",
          "type": "string"
        },
        {
          "internalType": "string",
          "name": "_email",
          "type": "string"
        }
      ],
      "name": "addOrganization",
      "outputs": [],
      "stateMutability": "nonpayable",
      "type": "function"
    },
    {
      "inputs": [
        {
          "internalType": "address",
          "name": "_organizationAddress",
          "type": "address"
        },
        {
          "internalType": "uint256",
          "name": "_index",
          "type": "uint256"
        },
        {
          "internalType": "string[]",
          "name": "_participants",
          "type": "string[]"
        }
      ],
      "name": "addParticipant",
      "outputs": [],
      "stateMutability": "nonpayable",
      "type": "function"
    },
    {
      "inputs": [
        {
          "internalType": "address",
          "name": "_userAddress",
          "type": "address"
        },
        {
          "internalType": "string",
          "name": "_name",
          "type": "string"
        },
        {
          "internalType": "string",
          "name": "_email",
          "type": "string"
        }
      ],
      "name": "addUser",
      "outputs": [],
      "stateMutability": "nonpayable",
      "type": "function"
    },
    {
      "inputs": [
        {
          "internalType": "address",
          "name": "_userAddress",
          "type": "address"
        }
      ],
      "name": "getAllCertificate",
      "outputs": [
        {
          "components": [
            {
              "internalType": "string",
              "name": "cid",
              "type": "string"
            },
            {
              "internalType": "address",
              "name": "userAddress",
              "type": "address"
            },
            {
              "internalType": "address",
              "name": "issuerAddress",
              "type": "address"
            }
          ],
          "internalType": "struct Nareswara.Certificate[]",
          "name": "",
          "type": "tuple[]"
        }
      ],
      "stateMutability": "view",
      "type": "function"
    },
    {
      "inputs": [
        {
          "internalType": "address",
          "name": "_organizationAddress",
          "type": "address"
        }
      ],
      "name": "getAllEvent",
      "outputs": [
        {
          "components": [
            {
              "internalType": "string",
              "name": "name",
              "type": "string"
            },
            {
              "internalType": "string[]",
              "name": "participants",
              "type": "string[]"
            }
          ],
          "internalType": "struct Nareswara.Event[]",
          "name": "",
          "type": "tuple[]"
        }
      ],
      "stateMutability": "view",
      "type": "function"
    },
    {
      "inputs": [
        {
          "internalType": "address",
          "name": "_organizationAddress",
          "type": "address"
        },
        {
          "internalType": "uint256",
          "name": "_index",
          "type": "uint256"
        }
      ],
      "name": "getAllParticipant",
      "outputs": [
        {
          "internalType": "string[]",
          "name": "",
          "type": "string[]"
        }
      ],
      "stateMutability": "view",
      "type": "function"
    },
    {
      "inputs": [],
      "name": "getCertificateForPublic",
      "outputs": [
        {
          "internalType": "string[]",
          "name": "",
          "type": "string[]"
        }
      ],
      "stateMutability": "view",
      "type": "function"
    },
    {
      "inputs": [
        {
          "internalType": "address",
          "name": "_organizationAddress",
          "type": "address"
        }
      ],
      "name": "getOrganizationExists",
      "outputs": [
        {
          "internalType": "bool",
          "name": "",
          "type": "bool"
        }
      ],
      "stateMutability": "view",
      "type": "function"
    },
    {
      "inputs": [
        {
          "internalType": "address",
          "name": "_userAddress",
          "type": "address"
        }
      ],
      "name": "getUserExists",
      "outputs": [
        {
          "internalType": "bool",
          "name": "",
          "type": "bool"
        }
      ],
      "stateMutability": "view",
      "type": "function"
    },
    {
      "inputs": [
        {
          "internalType": "address",
          "name": "_organizationAddress",
          "type": "address"
        },
        {
          "internalType": "string",
          "name": "_email",
          "type": "string"
        },
        {
          "internalType": "uint256",
          "name": "_index",
          "type": "uint256"
        }
      ],
      "name": "isParticipantReady",
      "outputs": [
        {
          "internalType": "bool",
          "name": "",
          "type": "bool"
        }
      ],
      "stateMutability": "view",
      "type": "function"
    },
    {
      "inputs": [
        {
          "internalType": "address",
          "name": "",
          "type": "address"
        }
      ],
      "name": "organizations",
      "outputs": [
        {
          "internalType": "address",
          "name": "id",
          "type": "address"
        },
        {
          "internalType": "string",
          "name": "name",
          "type": "string"
        },
        {
          "internalType": "string",
          "name": "email",
          "type": "string"
        }
      ],
      "stateMutability": "view",
      "type": "function"
    },
    {
      "inputs": [
        {
          "components": [
            {
              "internalType": "string",
              "name": "cid",
              "type": "string"
            },
            {
              "internalType": "address",
              "name": "userAddress",
              "type": "address"
            },
            {
              "internalType": "address",
              "name": "issuerAddress",
              "type": "address"
            }
          ],
          "internalType": "struct Nareswara.Certificate[]",
          "name": "_certificates",
          "type": "tuple[]"
        }
      ],
      "name": "redeemCertificate",
      "outputs": [],
      "stateMutability": "nonpayable",
      "type": "function"
    },
    {
      "inputs": [
        {
          "internalType": "address",
          "name": "",
          "type": "address"
        }
      ],
      "name": "users",
      "outputs": [
        {
          "internalType": "address",
          "name": "id",
          "type": "address"
        },
        {
          "internalType": "string",
          "name": "name",
          "type": "string"
        },
        {
          "internalType": "string",
          "name": "email",
          "type": "string"
        }
      ],
      "stateMutability": "view",
      "type": "function"
    },
    {
      "inputs": [
        {
          "internalType": "string",
          "name": "_cid",
          "type": "string"
        }
      ],
      "name": "verifyCertificate",
      "outputs": [
        {
          "internalType": "bool",
          "name": "",
          "type": "bool"
        }
      ],
      "stateMutability": "view",
      "type": "function"
    }
  ],
  "bytecode": "0x608060405234801561001057600080fd5b50612a7f806100206000396000f3fe608060405234801561001057600080fd5b50600436106100f55760003560e01c80635a1f740611610097578063d256f3d811610066578063d256f3d8146102c0578063d7554a68146102f0578063df1047701461030c578063e6995a6614610328576100f5565b80635a1f7406146101fc578063842f99441461022e5780638b23d8751461025e578063a87430ba1461028e576100f5565b8063295e80dc116100d3578063295e80dc146101645780633d47a3541461019457806342bb8fb2146101b05780634a74c325146101cc576100f5565b80630159c1b9146100fa5780630931d3af146101165780632827fabf14610146575b600080fd5b610114600480360381019061010f9190611c6d565b610358565b005b610130600480360381019061012b9190611cf8565b610451565b60405161013d9190611d40565b60405180910390f35b61014e6104eb565b60405161015b9190611e9c565b60405180910390f35b61017e60048036038101906101799190611cf8565b6105c4565b60405161018b9190611fdf565b60405180910390f35b6101ae60048036038101906101a99190612001565b6107a3565b005b6101ca60048036038101906101c591906121f7565b6109d4565b005b6101e660048036038101906101e19190612276565b610c04565b6040516101f39190611d40565b60405180910390f35b61021660048036038101906102119190611cf8565b610d9f565b6040516102259392919061233e565b60405180910390f35b61024860048036038101906102439190612383565b610ef9565b6040516102559190611e9c565b60405180910390f35b610278600480360381019061027391906123c3565b611038565b6040516102859190611d40565b60405180910390f35b6102a860048036038101906102a39190611cf8565b61112a565b6040516102b79392919061233e565b60405180910390f35b6102da60048036038101906102d59190611cf8565b611284565b6040516102e79190612598565b60405180910390f35b61030a60048036038101906103059190612001565b611490565b005b610326600480360381019061032191906125ba565b6116c1565b005b610342600480360381019061033d9190611cf8565b611777565b60405161034f9190611d40565b60405180910390f35b60006040518060400160405280848152602001838152509050600360008573ffffffffffffffffffffffffffffffffffffffff1673ffffffffffffffffffffffffffffffffffffffff16815260200190815260200160002060030181908060018154018082558091505060019003906000526020600020906002020160009091909190915060008201518160000190816103f29190612835565b50602082015181600101908051906020019061040f9291906118f5565b5050507f153594e72b817d485e2869681e89c7d4380a6c15a2024abbeefdc6e75995102f8484604051610443929190612907565b60405180910390a150505050565b60008173ffffffffffffffffffffffffffffffffffffffff16600260008473ffffffffffffffffffffffffffffffffffffffff1673ffffffffffffffffffffffffffffffffffffffff16815260200190815260200160002060000160009054906101000a900473ffffffffffffffffffffffffffffffffffffffff1673ffffffffffffffffffffffffffffffffffffffff16149050919050565b60606000805480602002602001604051908101604052809291908181526020016000905b828210156105bb57838290600052602060002001805461052e90612658565b80601f016020809104026020016040519081016040528092919081815260200182805461055a90612658565b80156105a75780601f1061057c576101008083540402835291602001916105a7565b820191906000526020600020905b81548152906001019060200180831161058a57829003601f168201915b50505050508152602001906001019061050f565b50505050905090565b6060600260008373ffffffffffffffffffffffffffffffffffffffff1673ffffffffffffffffffffffffffffffffffffffff168152602001908152602001600020600301805480602002602001604051908101604052809291908181526020016000905b82821015610798578382906000526020600020906003020160405180606001604052908160008201805461065b90612658565b80601f016020809104026020016040519081016040528092919081815260200182805461068790612658565b80156106d45780601f106106a9576101008083540402835291602001916106d4565b820191906000526020600020905b8154815290600101906020018083116106b757829003601f168201915b505050505081526020016001820160009054906101000a900473ffffffffffffffffffffffffffffffffffffffff1673ffffffffffffffffffffffffffffffffffffffff1673ffffffffffffffffffffffffffffffffffffffff1681526020016002820160009054906101000a900473ffffffffffffffffffffffffffffffffffffffff1673ffffffffffffffffffffffffffffffffffffffff1673ffffffffffffffffffffffffffffffffffffffff168152505081526020019060010190610628565b505050509050919050565b8273ffffffffffffffffffffffffffffffffffffffff16600360008573ffffffffffffffffffffffffffffffffffffffff1673ffffffffffffffffffffffffffffffffffffffff16815260200190815260200160002060000160009054906101000a900473ffffffffffffffffffffffffffffffffffffffff1673ffffffffffffffffffffffffffffffffffffffff1603610873576040517f08c379a000000000000000000000000000000000000000000000000000000000815260040161086a90612983565b60405180910390fd5b82600360008573ffffffffffffffffffffffffffffffffffffffff1673ffffffffffffffffffffffffffffffffffffffff16815260200190815260200160002060000160006101000a81548173ffffffffffffffffffffffffffffffffffffffff021916908373ffffffffffffffffffffffffffffffffffffffff16021790555081600360008573ffffffffffffffffffffffffffffffffffffffff1673ffffffffffffffffffffffffffffffffffffffff16815260200190815260200160002060010190816109439190612835565b5080600360008573ffffffffffffffffffffffffffffffffffffffff1673ffffffffffffffffffffffffffffffffffffffff16815260200190815260200160002060020190816109939190612835565b507ff099cf61e87eac71ecd300f54fdbc2f72ede778301f0103622a552a575e0d0c28383836040516109c79392919061233e565b60405180910390a1505050565b60005b8151811015610bc95760006040518060600160405280848481518110610a00576109ff6129a3565b5b6020026020010151600001518152602001848481518110610a2457610a236129a3565b5b60200260200101516020015173ffffffffffffffffffffffffffffffffffffffff168152602001848481518110610a5e57610a5d6129a3565b5b60200260200101516040015173ffffffffffffffffffffffffffffffffffffffff16815250905060026000848481518110610a9c57610a9b6129a3565b5b60200260200101516020015173ffffffffffffffffffffffffffffffffffffffff1673ffffffffffffffffffffffffffffffffffffffff1681526020019081526020016000206003018190806001815401808255809150506001900390600052602060002090600302016000909190919091506000820151816000019081610b249190612835565b5060208201518160010160006101000a81548173ffffffffffffffffffffffffffffffffffffffff021916908373ffffffffffffffffffffffffffffffffffffffff16021790555060408201518160020160006101000a81548173ffffffffffffffffffffffffffffffffffffffff021916908373ffffffffffffffffffffffffffffffffffffffff1602179055505050508080610bc190612a01565b9150506109d7565b507f6e4a246005fe00b090954848f63e7b7d36a90c433cb823aa625e0c6f412212ac81604051610bf99190611fdf565b60405180910390a150565b600080600360008673ffffffffffffffffffffffffffffffffffffffff1673ffffffffffffffffffffffffffffffffffffffff1681526020019081526020016000206003018381548110610c5b57610c5a6129a3565b5b9060005260206000209060020201600101805480602002602001604051908101604052809291908181526020016000905b82821015610d38578382906000526020600020018054610cab90612658565b80601f0160208091040260200160405190810160405280929190818152602001828054610cd790612658565b8015610d245780601f10610cf957610100808354040283529160200191610d24565b820191906000526020600020905b815481529060010190602001808311610d0757829003601f168201915b505050505081526020019060010190610c8c565b50505050905060005b8151811015610d9157610d6e828281518110610d6057610d5f6129a3565b5b602002602001015186611811565b15610d7e57600192505050610d98565b8080610d8990612a01565b915050610d41565b5060009150505b9392505050565b60036020528060005260406000206000915090508060000160009054906101000a900473ffffffffffffffffffffffffffffffffffffffff1690806001018054610de890612658565b80601f0160208091040260200160405190810160405280929190818152602001828054610e1490612658565b8015610e615780601f10610e3657610100808354040283529160200191610e61565b820191906000526020600020905b815481529060010190602001808311610e4457829003601f168201915b505050505090806002018054610e7690612658565b80601f0160208091040260200160405190810160405280929190818152602001828054610ea290612658565b8015610eef5780601f10610ec457610100808354040283529160200191610eef565b820191906000526020600020905b815481529060010190602001808311610ed257829003601f168201915b5050505050905083565b6060600360008473ffffffffffffffffffffffffffffffffffffffff1673ffffffffffffffffffffffffffffffffffffffff1681526020019081526020016000206003018281548110610f4f57610f4e6129a3565b5b9060005260206000209060020201600101805480602002602001604051908101604052809291908181526020016000905b8282101561102c578382906000526020600020018054610f9f90612658565b80601f0160208091040260200160405190810160405280929190818152602001828054610fcb90612658565b80156110185780601f10610fed57610100808354040283529160200191611018565b820191906000526020600020905b815481529060010190602001808311610ffb57829003601f168201915b505050505081526020019060010190610f80565b50505050905092915050565b600080600090505b60008054905081101561111f576110fd60008281548110611064576110636129a3565b5b90600052602060002001805461107990612658565b80601f01602080910402602001604051908101604052809291908181526020018280546110a590612658565b80156110f25780601f106110c7576101008083540402835291602001916110f2565b820191906000526020600020905b8154815290600101906020018083116110d557829003601f168201915b505050505084611811565b1561110c576001915050611125565b808061111790612a01565b915050611040565b50600090505b919050565b60026020528060005260406000206000915090508060000160009054906101000a900473ffffffffffffffffffffffffffffffffffffffff169080600101805461117390612658565b80601f016020809104026020016040519081016040528092919081815260200182805461119f90612658565b80156111ec5780601f106111c1576101008083540402835291602001916111ec565b820191906000526020600020905b8154815290600101906020018083116111cf57829003601f168201915b50505050509080600201805461120190612658565b80601f016020809104026020016040519081016040528092919081815260200182805461122d90612658565b801561127a5780601f1061124f5761010080835404028352916020019161127a565b820191906000526020600020905b81548152906001019060200180831161125d57829003601f168201915b5050505050905083565b6060600360008373ffffffffffffffffffffffffffffffffffffffff1673ffffffffffffffffffffffffffffffffffffffff168152602001908152602001600020600301805480602002602001604051908101604052809291908181526020016000905b82821015611485578382906000526020600020906002020160405180604001604052908160008201805461131b90612658565b80601f016020809104026020016040519081016040528092919081815260200182805461134790612658565b80156113945780601f1061136957610100808354040283529160200191611394565b820191906000526020600020905b81548152906001019060200180831161137757829003601f168201915b5050505050815260200160018201805480602002602001604051908101604052809291908181526020016000905b8282101561146e5783829060005260206000200180546113e190612658565b80601f016020809104026020016040519081016040528092919081815260200182805461140d90612658565b801561145a5780601f1061142f5761010080835404028352916020019161145a565b820191906000526020600020905b81548152906001019060200180831161143d57829003601f168201915b5050505050815260200190600101906113c2565b5050505081525050815260200190600101906112e8565b505050509050919050565b8273ffffffffffffffffffffffffffffffffffffffff16600260008573ffffffffffffffffffffffffffffffffffffffff1673ffffffffffffffffffffffffffffffffffffffff16815260200190815260200160002060000160009054906101000a900473ffffffffffffffffffffffffffffffffffffffff1673ffffffffffffffffffffffffffffffffffffffff1603611560576040517f08c379a000000000000000000000000000000000000000000000000000000000815260040161155790612983565b60405180910390fd5b82600260008573ffffffffffffffffffffffffffffffffffffffff1673ffffffffffffffffffffffffffffffffffffffff16815260200190815260200160002060000160006101000a81548173ffffffffffffffffffffffffffffffffffffffff021916908373ffffffffffffffffffffffffffffffffffffffff16021790555081600260008573ffffffffffffffffffffffffffffffffffffffff1673ffffffffffffffffffffffffffffffffffffffff16815260200190815260200160002060010190816116309190612835565b5080600260008573ffffffffffffffffffffffffffffffffffffffff1673ffffffffffffffffffffffffffffffffffffffff16815260200190815260200160002060020190816116809190612835565b507f8eab1db142a914aff8b515eedb9177bd7effaef6d714c41e30bdf152067786078383836040516116b49392919061233e565b60405180910390a1505050565b80600360008573ffffffffffffffffffffffffffffffffffffffff1673ffffffffffffffffffffffffffffffffffffffff1681526020019081526020016000206003018381548110611716576117156129a3565b5b9060005260206000209060020201600101908051906020019061173a9291906118f5565b507fa4e21399a9cf01bdf29bdf026d33bf802d442f9f6b41517920259145884e254c8160405161176a9190611e9c565b60405180910390a1505050565b60008173ffffffffffffffffffffffffffffffffffffffff16600360008473ffffffffffffffffffffffffffffffffffffffff1673ffffffffffffffffffffffffffffffffffffffff16815260200190815260200160002060000160009054906101000a900473ffffffffffffffffffffffffffffffffffffffff1673ffffffffffffffffffffffffffffffffffffffff16149050919050565b60008083905060008390506000825190508151811461183657600093505050506118ef565b60005b818110156118e657828181518110611854576118536129a3565b5b602001015160f81c60f81b7effffffffffffffffffffffffffffffffffffffffffffffffffffffffffffff1916848281518110611894576118936129a3565b5b602001015160f81c60f81b7effffffffffffffffffffffffffffffffffffffffffffffffffffffffffffff1916146118d35760009450505050506118ef565b80806118de90612a01565b915050611839565b50600193505050505b92915050565b82805482825590600052602060002090810192821561193d579160200282015b8281111561193c57825182908161192c9190612835565b5091602001919060010190611915565b5b50905061194a919061194e565b5090565b5b8082111561196e57600081816119659190611972565b5060010161194f565b5090565b50805461197e90612658565b6000825580601f1061199057506119af565b601f0160209004906000526020600020908101906119ae91906119b2565b5b50565b5b808211156119cb5760008160009055506001016119b3565b5090565b6000604051905090565b600080fd5b600080fd5b600073ffffffffffffffffffffffffffffffffffffffff82169050919050565b6000611a0e826119e3565b9050919050565b611a1e81611a03565b8114611a2957600080fd5b50565b600081359050611a3b81611a15565b92915050565b600080fd5b600080fd5b6000601f19601f8301169050919050565b7f4e487b7100000000000000000000000000000000000000000000000000000000600052604160045260246000fd5b611a9482611a4b565b810181811067ffffffffffffffff82111715611ab357611ab2611a5c565b5b80604052505050565b6000611ac66119cf565b9050611ad28282611a8b565b919050565b600067ffffffffffffffff821115611af257611af1611a5c565b5b611afb82611a4b565b9050602081019050919050565b82818337600083830152505050565b6000611b2a611b2584611ad7565b611abc565b905082815260208101848484011115611b4657611b45611a46565b5b611b51848285611b08565b509392505050565b600082601f830112611b6e57611b6d611a41565b5b8135611b7e848260208601611b17565b91505092915050565b600067ffffffffffffffff821115611ba257611ba1611a5c565b5b602082029050602081019050919050565b600080fd5b6000611bcb611bc684611b87565b611abc565b90508083825260208201905060208402830185811115611bee57611bed611bb3565b5b835b81811015611c3557803567ffffffffffffffff811115611c1357611c12611a41565b5b808601611c208982611b59565b85526020850194505050602081019050611bf0565b5050509392505050565b600082601f830112611c5457611c53611a41565b5b8135611c64848260208601611bb8565b91505092915050565b600080600060608486031215611c8657611c856119d9565b5b6000611c9486828701611a2c565b935050602084013567ffffffffffffffff811115611cb557611cb46119de565b5b611cc186828701611b59565b925050604084013567ffffffffffffffff811115611ce257611ce16119de565b5b611cee86828701611c3f565b9150509250925092565b600060208284031215611d0e57611d0d6119d9565b5b6000611d1c84828501611a2c565b91505092915050565b60008115159050919050565b611d3a81611d25565b82525050565b6000602082019050611d556000830184611d31565b92915050565b600081519050919050565b600082825260208201905092915050565b6000819050602082019050919050565b600081519050919050565b600082825260208201905092915050565b60005b83811015611dc1578082015181840152602081019050611da6565b60008484015250505050565b6000611dd882611d87565b611de28185611d92565b9350611df2818560208601611da3565b611dfb81611a4b565b840191505092915050565b6000611e128383611dcd565b905092915050565b6000602082019050919050565b6000611e3282611d5b565b611e3c8185611d66565b935083602082028501611e4e85611d77565b8060005b85811015611e8a5784840389528151611e6b8582611e06565b9450611e7683611e1a565b925060208a01995050600181019050611e52565b50829750879550505050505092915050565b60006020820190508181036000830152611eb68184611e27565b905092915050565b600081519050919050565b600082825260208201905092915050565b6000819050602082019050919050565b611ef381611a03565b82525050565b60006060830160008301518482036000860152611f168282611dcd565b9150506020830151611f2b6020860182611eea565b506040830151611f3e6040860182611eea565b508091505092915050565b6000611f558383611ef9565b905092915050565b6000602082019050919050565b6000611f7582611ebe565b611f7f8185611ec9565b935083602082028501611f9185611eda565b8060005b85811015611fcd5784840389528151611fae8582611f49565b9450611fb983611f5d565b925060208a01995050600181019050611f95565b50829750879550505050505092915050565b60006020820190508181036000830152611ff98184611f6a565b905092915050565b60008060006060848603121561201a576120196119d9565b5b600061202886828701611a2c565b935050602084013567ffffffffffffffff811115612049576120486119de565b5b61205586828701611b59565b925050604084013567ffffffffffffffff811115612076576120756119de565b5b61208286828701611b59565b9150509250925092565b600067ffffffffffffffff8211156120a7576120a6611a5c565b5b602082029050602081019050919050565b600080fd5b600080fd5b6000606082840312156120d8576120d76120b8565b5b6120e26060611abc565b9050600082013567ffffffffffffffff811115612102576121016120bd565b5b61210e84828501611b59565b600083015250602061212284828501611a2c565b602083015250604061213684828501611a2c565b60408301525092915050565b60006121556121508461208c565b611abc565b9050808382526020820190506020840283018581111561217857612177611bb3565b5b835b818110156121bf57803567ffffffffffffffff81111561219d5761219c611a41565b5b8086016121aa89826120c2565b8552602085019450505060208101905061217a565b5050509392505050565b600082601f8301126121de576121dd611a41565b5b81356121ee848260208601612142565b91505092915050565b60006020828403121561220d5761220c6119d9565b5b600082013567ffffffffffffffff81111561222b5761222a6119de565b5b612237848285016121c9565b91505092915050565b6000819050919050565b61225381612240565b811461225e57600080fd5b50565b6000813590506122708161224a565b92915050565b60008060006060848603121561228f5761228e6119d9565b5b600061229d86828701611a2c565b935050602084013567ffffffffffffffff8111156122be576122bd6119de565b5b6122ca86828701611b59565b92505060406122db86828701612261565b9150509250925092565b6122ee81611a03565b82525050565b600082825260208201905092915050565b600061231082611d87565b61231a81856122f4565b935061232a818560208601611da3565b61233381611a4b565b840191505092915050565b600060608201905061235360008301866122e5565b81810360208301526123658185612305565b905081810360408301526123798184612305565b9050949350505050565b6000806040838503121561239a576123996119d9565b5b60006123a885828601611a2c565b92505060206123b985828601612261565b9150509250929050565b6000602082840312156123d9576123d86119d9565b5b600082013567ffffffffffffffff8111156123f7576123f66119de565b5b61240384828501611b59565b91505092915050565b600081519050919050565b600082825260208201905092915050565b6000819050602082019050919050565b600082825260208201905092915050565b600061245482611d5b565b61245e8185612438565b93508360208202850161247085611d77565b8060005b858110156124ac578484038952815161248d8582611e06565b945061249883611e1a565b925060208a01995050600181019050612474565b50829750879550505050505092915050565b600060408301600083015184820360008601526124db8282611dcd565b915050602083015184820360208601526124f58282612449565b9150508091505092915050565b600061250e83836124be565b905092915050565b6000602082019050919050565b600061252e8261240c565b6125388185612417565b93508360208202850161254a85612428565b8060005b8581101561258657848403895281516125678582612502565b945061257283612516565b925060208a0199505060018101905061254e565b50829750879550505050505092915050565b600060208201905081810360008301526125b28184612523565b905092915050565b6000806000606084860312156125d3576125d26119d9565b5b60006125e186828701611a2c565b93505060206125f286828701612261565b925050604084013567ffffffffffffffff811115612613576126126119de565b5b61261f86828701611c3f565b9150509250925092565b7f4e487b7100000000000000000000000000000000000000000000000000000000600052602260045260246000fd5b6000600282049050600182168061267057607f821691505b60208210810361268357612682612629565b5b50919050565b60008190508160005260206000209050919050565b60006020601f8301049050919050565b600082821b905092915050565b6000600883026126eb7fffffffffffffffffffffffffffffffffffffffffffffffffffffffffffffffff826126ae565b6126f586836126ae565b95508019841693508086168417925050509392505050565b6000819050919050565b600061273261272d61272884612240565b61270d565b612240565b9050919050565b6000819050919050565b61274c83612717565b61276061275882612739565b8484546126bb565b825550505050565b600090565b612775612768565b612780818484612743565b505050565b5b818110156127a45761279960008261276d565b600181019050612786565b5050565b601f8211156127e9576127ba81612689565b6127c38461269e565b810160208510156127d2578190505b6127e66127de8561269e565b830182612785565b50505b505050565b600082821c905092915050565b600061280c600019846008026127ee565b1980831691505092915050565b600061282583836127fb565b9150826002028217905092915050565b61283e82611d87565b67ffffffffffffffff81111561285757612856611a5c565b5b6128618254612658565b61286c8282856127a8565b600060209050601f83116001811461289f576000841561288d578287015190505b6128978582612819565b8655506128ff565b601f1984166128ad86612689565b60005b828110156128d5578489015182556001820191506020850194506020810190506128b0565b868310156128f257848901516128ee601f8916826127fb565b8355505b6001600288020188555050505b505050505050565b600060408201905061291c60008301856122e5565b818103602083015261292e8184612305565b90509392505050565b7f54686973207573657220616c7265616479206578697374732e00000000000000600082015250565b600061296d6019836122f4565b915061297882612937565b602082019050919050565b6000602082019050818103600083015261299c81612960565b9050919050565b7f4e487b7100000000000000000000000000000000000000000000000000000000600052603260045260246000fd5b7f4e487b7100000000000000000000000000000000000000000000000000000000600052601160045260246000fd5b6000612a0c82612240565b91507fffffffffffffffffffffffffffffffffffffffffffffffffffffffffffffffff8203612a3e57612a3d6129d2565b5b60018201905091905056fea2646970667358221220b9c9f316681406caeb7e0d121080d1f378bdfadfc9db75a5464d2d5be89f3cff64736f6c63430008110033",
  "linkReferences": {},
  "deployedLinkReferences": {}
}