{
  "_format": "hh-sol-artifact-1",
  "contractName": "Nareswara",
  "sourceName": "contracts/Nareswara.sol",
  "abi": [
    {
      "anonymous": false,
      "inputs": [
        {
          "indexed": false,
          "internalType": "string",
          "name": "email",
          "type": "string"
        }
      ],
      "name": "OrganizationAdded",
      "type": "event"
    },
    {
      "anonymous": false,
      "inputs": [
        {
          "indexed": false,
          "internalType": "string",
          "name": "email",
          "type": "string"
        }
      ],
      "name": "UserAdded",
      "type": "event"
    },
    {
      "inputs": [
        {
          "components": [
            {
              "internalType": "string",
              "name": "cid",
              "type": "string"
            },
            {
              "internalType": "uint256",
              "name": "userId",
              "type": "uint256"
            },
            {
              "internalType": "uint256",
              "name": "organizationId",
              "type": "uint256"
            }
          ],
          "internalType": "struct Nareswara.Certificate[]",
          "name": "_certificates",
          "type": "tuple[]"
        }
      ],
      "name": "addCertificate",
      "outputs": [],
      "stateMutability": "nonpayable",
      "type": "function"
    },
    {
      "inputs": [
        {
          "internalType": "string",
          "name": "_email",
          "type": "string"
        }
      ],
      "name": "addOrganization",
      "outputs": [],
      "stateMutability": "nonpayable",
      "type": "function"
    },
    {
      "inputs": [],
      "name": "addOrganizationIndex",
      "outputs": [
        {
          "internalType": "uint256",
          "name": "result",
          "type": "uint256"
        }
      ],
      "stateMutability": "nonpayable",
      "type": "function"
    },
    {
      "inputs": [
        {
          "internalType": "string",
          "name": "_email",
          "type": "string"
        }
      ],
      "name": "addUser",
      "outputs": [],
      "stateMutability": "nonpayable",
      "type": "function"
    },
    {
      "inputs": [],
      "name": "addUserIndex",
      "outputs": [
        {
          "internalType": "uint256",
          "name": "result",
          "type": "uint256"
        }
      ],
      "stateMutability": "nonpayable",
      "type": "function"
    },
    {
      "inputs": [
        {
          "internalType": "uint256",
          "name": "_id",
          "type": "uint256"
        }
      ],
      "name": "getAllCertificate",
      "outputs": [
        {
          "components": [
            {
              "internalType": "string",
              "name": "cid",
              "type": "string"
            },
            {
              "internalType": "uint256",
              "name": "userId",
              "type": "uint256"
            },
            {
              "internalType": "uint256",
              "name": "organizationId",
              "type": "uint256"
            }
          ],
          "internalType": "struct Nareswara.Certificate[]",
          "name": "",
          "type": "tuple[]"
        }
      ],
      "stateMutability": "view",
      "type": "function"
    },
    {
      "inputs": [],
      "name": "getNowOrganization",
      "outputs": [
        {
          "internalType": "uint256",
          "name": "",
          "type": "uint256"
        }
      ],
      "stateMutability": "view",
      "type": "function"
    },
    {
      "inputs": [],
      "name": "getNowUser",
      "outputs": [
        {
          "internalType": "uint256",
          "name": "",
          "type": "uint256"
        }
      ],
      "stateMutability": "view",
      "type": "function"
    },
    {
      "inputs": [
        {
          "internalType": "uint256",
          "name": "",
          "type": "uint256"
        }
      ],
      "name": "organizations",
      "outputs": [
        {
          "internalType": "uint256",
          "name": "id",
          "type": "uint256"
        },
        {
          "internalType": "string",
          "name": "email",
          "type": "string"
        }
      ],
      "stateMutability": "view",
      "type": "function"
    },
    {
      "inputs": [
        {
          "internalType": "uint256",
          "name": "",
          "type": "uint256"
        }
      ],
      "name": "users",
      "outputs": [
        {
          "internalType": "uint256",
          "name": "id",
          "type": "uint256"
        },
        {
          "internalType": "string",
          "name": "email",
          "type": "string"
        }
      ],
      "stateMutability": "view",
      "type": "function"
    },
    {
      "inputs": [
        {
          "internalType": "uint256",
          "name": "_id",
          "type": "uint256"
        },
        {
          "internalType": "string",
          "name": "_cid",
          "type": "string"
        }
      ],
      "name": "verifyCertificate",
      "outputs": [
        {
          "internalType": "bool",
          "name": "",
          "type": "bool"
        }
      ],
      "stateMutability": "view",
      "type": "function"
    }
  ],
  "bytecode": "0x608060405234801561001057600080fd5b50611462806100206000396000f3fe608060405234801561001057600080fd5b50600436106100a95760003560e01c8063365b98b211610071578063365b98b2146101665780635260573414610197578063710de504146101b5578063ce534d37146101d1578063e792dd8a146101ed578063f4b1f8c71461021e576100a9565b8063055dba1d146100ae578063067779d4146100cc57806308d5fd12146100ea5780631229d6b91461011a57806318b8275a1461014a575b600080fd5b6100b661023c565b6040516100c391906109b4565b60405180910390f35b6100d461025f565b6040516100e191906109b4565b60405180910390f35b61010460048036038101906100ff9190610b55565b610269565b6040516101119190610bcc565b60405180910390f35b610134600480360381019061012f9190610be7565b6103e4565b6040516101419190610db4565b60405180910390f35b610164600480360381019061015f9190610dd6565b6104ff565b005b610180600480360381019061017b9190610be7565b610585565b60405161018e929190610e69565b60405180910390f35b61019f610631565b6040516101ac91906109b4565b60405180910390f35b6101cf60048036038101906101ca9190610dd6565b610653565b005b6101eb60048036038101906101e69190611009565b6106db565b005b61020760048036038101906102029190610be7565b610802565b604051610215929190610e69565b60405180910390f35b6102266108ae565b60405161023391906109b4565b60405180910390f35b6000600154905060018060008282546102559190611081565b9250508190555090565b6000600154905090565b60008060026000858152602001908152602001600020600201805480602002602001604051908101604052809291908181526020016000905b8282101561037a57838290600052602060002090600302016040518060600160405290816000820180546102d5906110e4565b80601f0160208091040260200160405190810160405280929190818152602001828054610301906110e4565b801561034e5780601f106103235761010080835404028352916020019161034e565b820191906000526020600020905b81548152906001019060200180831161033157829003601f168201915b5050505050815260200160018201548152602001600282015481525050815260200190600101906102a2565b50505050905060005b81518110156103d7576103b48282815181106103a2576103a1611115565b5b602002602001015160000151856108b7565b156103c4576001925050506103de565b80806103cf90611144565b915050610383565b5060009150505b92915050565b606060026000838152602001908152602001600020600201805480602002602001604051908101604052809291908181526020016000905b828210156104f4578382906000526020600020906003020160405180606001604052908160008201805461044f906110e4565b80601f016020809104026020016040519081016040528092919081815260200182805461047b906110e4565b80156104c85780601f1061049d576101008083540402835291602001916104c8565b820191906000526020600020905b8154815290600101906020018083116104ab57829003601f168201915b50505050508152602001600182015481526020016002820154815250508152602001906001019061041c565b505050509050919050565b60005460026000805481526020019081526020016000206000018190555080600260008054815260200190815260200160002060010190816105419190611338565b5061054a610631565b507fdb8f9fd4bfba5ae615ae02e8b4d281b887225fd3d34a5ac7b8d78df768bb63e78160405161057a919061140a565b60405180910390a150565b60026020528060005260406000206000915090508060000154908060010180546105ae906110e4565b80601f01602080910402602001604051908101604052809291908181526020018280546105da906110e4565b80156106275780601f106105fc57610100808354040283529160200191610627565b820191906000526020600020905b81548152906001019060200180831161060a57829003601f168201915b5050505050905082565b60008054905060016000808282546106499190611081565b9250508190555090565b600154600360006001548152602001908152602001600020600001819055508060036000600154815260200190815260200160002060010190816106979190611338565b506106a061023c565b507f0c1ade64b1f2090359fd3b37b6e072350507e5b971dde08e7d7bb865521bb475816040516106d0919061140a565b60405180910390a150565b60005b81518110156107fe576000604051806060016040528084848151811061070757610706611115565b5b602002602001015160000151815260200184848151811061072b5761072a611115565b5b602002602001015160200151815260200184848151811061074f5761074e611115565b5b60200260200101516040015181525090506002600084848151811061077757610776611115565b5b602002602001015160200151815260200190815260200160002060020181908060018154018082558091505060019003906000526020600020906003020160009091909190915060008201518160000190816107d39190611338565b50602082015181600101556040820151816002015550505080806107f690611144565b9150506106de565b5050565b600360205280600052604060002060009150905080600001549080600101805461082b906110e4565b80601f0160208091040260200160405190810160405280929190818152602001828054610857906110e4565b80156108a45780601f10610879576101008083540402835291602001916108a4565b820191906000526020600020905b81548152906001019060200180831161088757829003601f168201915b5050505050905082565b60008054905090565b6000808390506000839050600082519050815181146108dc5760009350505050610995565b60005b8181101561098c578281815181106108fa576108f9611115565b5b602001015160f81c60f81b7effffffffffffffffffffffffffffffffffffffffffffffffffffffffffffff191684828151811061093a57610939611115565b5b602001015160f81c60f81b7effffffffffffffffffffffffffffffffffffffffffffffffffffffffffffff191614610979576000945050505050610995565b808061098490611144565b9150506108df565b50600193505050505b92915050565b6000819050919050565b6109ae8161099b565b82525050565b60006020820190506109c960008301846109a5565b92915050565b6000604051905090565b600080fd5b600080fd5b6109ec8161099b565b81146109f757600080fd5b50565b600081359050610a09816109e3565b92915050565b600080fd5b600080fd5b6000601f19601f8301169050919050565b7f4e487b7100000000000000000000000000000000000000000000000000000000600052604160045260246000fd5b610a6282610a19565b810181811067ffffffffffffffff82111715610a8157610a80610a2a565b5b80604052505050565b6000610a946109cf565b9050610aa08282610a59565b919050565b600067ffffffffffffffff821115610ac057610abf610a2a565b5b610ac982610a19565b9050602081019050919050565b82818337600083830152505050565b6000610af8610af384610aa5565b610a8a565b905082815260208101848484011115610b1457610b13610a14565b5b610b1f848285610ad6565b509392505050565b600082601f830112610b3c57610b3b610a0f565b5b8135610b4c848260208601610ae5565b91505092915050565b60008060408385031215610b6c57610b6b6109d9565b5b6000610b7a858286016109fa565b925050602083013567ffffffffffffffff811115610b9b57610b9a6109de565b5b610ba785828601610b27565b9150509250929050565b60008115159050919050565b610bc681610bb1565b82525050565b6000602082019050610be16000830184610bbd565b92915050565b600060208284031215610bfd57610bfc6109d9565b5b6000610c0b848285016109fa565b91505092915050565b600081519050919050565b600082825260208201905092915050565b6000819050602082019050919050565b600081519050919050565b600082825260208201905092915050565b60005b83811015610c7a578082015181840152602081019050610c5f565b60008484015250505050565b6000610c9182610c40565b610c9b8185610c4b565b9350610cab818560208601610c5c565b610cb481610a19565b840191505092915050565b610cc88161099b565b82525050565b60006060830160008301518482036000860152610ceb8282610c86565b9150506020830151610d006020860182610cbf565b506040830151610d136040860182610cbf565b508091505092915050565b6000610d2a8383610cce565b905092915050565b6000602082019050919050565b6000610d4a82610c14565b610d548185610c1f565b935083602082028501610d6685610c30565b8060005b85811015610da25784840389528151610d838582610d1e565b9450610d8e83610d32565b925060208a01995050600181019050610d6a565b50829750879550505050505092915050565b60006020820190508181036000830152610dce8184610d3f565b905092915050565b600060208284031215610dec57610deb6109d9565b5b600082013567ffffffffffffffff811115610e0a57610e096109de565b5b610e1684828501610b27565b91505092915050565b600082825260208201905092915050565b6000610e3b82610c40565b610e458185610e1f565b9350610e55818560208601610c5c565b610e5e81610a19565b840191505092915050565b6000604082019050610e7e60008301856109a5565b8181036020830152610e908184610e30565b90509392505050565b600067ffffffffffffffff821115610eb457610eb3610a2a565b5b602082029050602081019050919050565b600080fd5b600080fd5b600080fd5b600060608284031215610eea57610ee9610eca565b5b610ef46060610a8a565b9050600082013567ffffffffffffffff811115610f1457610f13610ecf565b5b610f2084828501610b27565b6000830152506020610f34848285016109fa565b6020830152506040610f48848285016109fa565b60408301525092915050565b6000610f67610f6284610e99565b610a8a565b90508083825260208201905060208402830185811115610f8a57610f89610ec5565b5b835b81811015610fd157803567ffffffffffffffff811115610faf57610fae610a0f565b5b808601610fbc8982610ed4565b85526020850194505050602081019050610f8c565b5050509392505050565b600082601f830112610ff057610fef610a0f565b5b8135611000848260208601610f54565b91505092915050565b60006020828403121561101f5761101e6109d9565b5b600082013567ffffffffffffffff81111561103d5761103c6109de565b5b61104984828501610fdb565b91505092915050565b7f4e487b7100000000000000000000000000000000000000000000000000000000600052601160045260246000fd5b600061108c8261099b565b91506110978361099b565b92508282019050808211156110af576110ae611052565b5b92915050565b7f4e487b7100000000000000000000000000000000000000000000000000000000600052602260045260246000fd5b600060028204905060018216806110fc57607f821691505b60208210810361110f5761110e6110b5565b5b50919050565b7f4e487b7100000000000000000000000000000000000000000000000000000000600052603260045260246000fd5b600061114f8261099b565b91507fffffffffffffffffffffffffffffffffffffffffffffffffffffffffffffffff820361118157611180611052565b5b600182019050919050565b60008190508160005260206000209050919050565b60006020601f8301049050919050565b600082821b905092915050565b6000600883026111ee7fffffffffffffffffffffffffffffffffffffffffffffffffffffffffffffffff826111b1565b6111f886836111b1565b95508019841693508086168417925050509392505050565b6000819050919050565b600061123561123061122b8461099b565b611210565b61099b565b9050919050565b6000819050919050565b61124f8361121a565b61126361125b8261123c565b8484546111be565b825550505050565b600090565b61127861126b565b611283818484611246565b505050565b5b818110156112a75761129c600082611270565b600181019050611289565b5050565b601f8211156112ec576112bd8161118c565b6112c6846111a1565b810160208510156112d5578190505b6112e96112e1856111a1565b830182611288565b50505b505050565b600082821c905092915050565b600061130f600019846008026112f1565b1980831691505092915050565b600061132883836112fe565b9150826002028217905092915050565b61134182610c40565b67ffffffffffffffff81111561135a57611359610a2a565b5b61136482546110e4565b61136f8282856112ab565b600060209050601f8311600181146113a25760008415611390578287015190505b61139a858261131c565b865550611402565b601f1984166113b08661118c565b60005b828110156113d8578489015182556001820191506020850194506020810190506113b3565b868310156113f557848901516113f1601f8916826112fe565b8355505b6001600288020188555050505b505050505050565b600060208201905081810360008301526114248184610e30565b90509291505056fea2646970667358221220353d1e749f518ac8cdccc119ac026f84fa48fe7c66fb5a40ccb6e312ae28c22864736f6c63430008110033",
  "linkReferences": {},
  "deployedLinkReferences": {}
}