{
  "_format": "hh-sol-artifact-1",
  "contractName": "Nareswara",
  "sourceName": "contracts/Nareswara.sol",
  "abi": [
    {
      "anonymous": false,
      "inputs": [
        {
          "indexed": false,
          "internalType": "address",
          "name": "id",
          "type": "address"
        },
        {
          "indexed": false,
          "internalType": "string",
          "name": "eventName",
          "type": "string"
        }
      ],
      "name": "EventAdded",
      "type": "event"
    },
    {
      "anonymous": false,
      "inputs": [
        {
          "indexed": false,
          "internalType": "address",
          "name": "id",
          "type": "address"
        },
        {
          "indexed": false,
          "internalType": "string",
          "name": "name",
          "type": "string"
        },
        {
          "indexed": false,
          "internalType": "string",
          "name": "email",
          "type": "string"
        }
      ],
      "name": "OrganizationAdded",
      "type": "event"
    },
    {
      "anonymous": false,
      "inputs": [
        {
          "indexed": false,
          "internalType": "string[]",
          "name": "participants",
          "type": "string[]"
        }
      ],
      "name": "ParticipantAdded",
      "type": "event"
    },
    {
      "anonymous": false,
      "inputs": [
        {
          "indexed": false,
          "internalType": "address",
          "name": "userAddress",
          "type": "address"
        },
        {
          "indexed": false,
          "internalType": "string",
          "name": "name",
          "type": "string"
        },
        {
          "indexed": false,
          "internalType": "string",
          "name": "email",
          "type": "string"
        }
      ],
      "name": "UserAdded",
      "type": "event"
    },
    {
      "inputs": [
        {
          "internalType": "address",
          "name": "_organizationAddress",
          "type": "address"
        },
        {
          "internalType": "string",
          "name": "_eventName",
          "type": "string"
        },
        {
          "internalType": "string[]",
          "name": "_participants",
          "type": "string[]"
        }
      ],
      "name": "addEvent",
      "outputs": [],
      "stateMutability": "nonpayable",
      "type": "function"
    },
    {
      "inputs": [
        {
          "internalType": "address",
          "name": "_organizationAddress",
          "type": "address"
        },
        {
          "internalType": "string",
          "name": "_name",
          "type": "string"
        },
        {
          "internalType": "string",
          "name": "_email",
          "type": "string"
        }
      ],
      "name": "addOrganization",
      "outputs": [],
      "stateMutability": "nonpayable",
      "type": "function"
    },
    {
      "inputs": [
        {
          "internalType": "address",
          "name": "_organizationAddress",
          "type": "address"
        },
        {
          "internalType": "uint256",
          "name": "_index",
          "type": "uint256"
        },
        {
          "internalType": "string[]",
          "name": "_participants",
          "type": "string[]"
        }
      ],
      "name": "addParticipant",
      "outputs": [],
      "stateMutability": "nonpayable",
      "type": "function"
    },
    {
      "inputs": [
        {
          "internalType": "address",
          "name": "_userAddress",
          "type": "address"
        },
        {
          "internalType": "string",
          "name": "_name",
          "type": "string"
        },
        {
          "internalType": "string",
          "name": "_email",
          "type": "string"
        }
      ],
      "name": "addUser",
      "outputs": [],
      "stateMutability": "nonpayable",
      "type": "function"
    },
    {
      "inputs": [
        {
          "internalType": "address",
          "name": "_userAddress",
          "type": "address"
        }
      ],
      "name": "getAllCertificate",
      "outputs": [
        {
          "components": [
            {
              "internalType": "string",
              "name": "cid",
              "type": "string"
            },
            {
              "internalType": "address",
              "name": "userAddress",
              "type": "address"
            },
            {
              "internalType": "address",
              "name": "issuerAddress",
              "type": "address"
            }
          ],
          "internalType": "struct Nareswara.Certificate[]",
          "name": "",
          "type": "tuple[]"
        }
      ],
      "stateMutability": "view",
      "type": "function"
    },
    {
      "inputs": [
        {
          "internalType": "address",
          "name": "_organizationAddress",
          "type": "address"
        }
      ],
      "name": "getAllEvent",
      "outputs": [
        {
          "components": [
            {
              "internalType": "string",
              "name": "name",
              "type": "string"
            },
            {
              "internalType": "string[]",
              "name": "participants",
              "type": "string[]"
            }
          ],
          "internalType": "struct Nareswara.Event[]",
          "name": "",
          "type": "tuple[]"
        }
      ],
      "stateMutability": "view",
      "type": "function"
    },
    {
      "inputs": [
        {
          "internalType": "address",
          "name": "_organizationAddress",
          "type": "address"
        },
        {
          "internalType": "uint256",
          "name": "_index",
          "type": "uint256"
        }
      ],
      "name": "getAllParticipant",
      "outputs": [
        {
          "internalType": "string[]",
          "name": "",
          "type": "string[]"
        }
      ],
      "stateMutability": "view",
      "type": "function"
    },
    {
      "inputs": [
        {
          "internalType": "address",
          "name": "_organizationAddress",
          "type": "address"
        }
      ],
      "name": "getOrganizationExists",
      "outputs": [
        {
          "internalType": "bool",
          "name": "",
          "type": "bool"
        }
      ],
      "stateMutability": "view",
      "type": "function"
    },
    {
      "inputs": [
        {
          "internalType": "address",
          "name": "_userAddress",
          "type": "address"
        }
      ],
      "name": "getUserExists",
      "outputs": [
        {
          "internalType": "bool",
          "name": "",
          "type": "bool"
        }
      ],
      "stateMutability": "view",
      "type": "function"
    },
    {
      "inputs": [
        {
          "internalType": "address",
          "name": "_organizationAddress",
          "type": "address"
        },
        {
          "internalType": "string",
          "name": "_email",
          "type": "string"
        },
        {
          "internalType": "uint256",
          "name": "_index",
          "type": "uint256"
        }
      ],
      "name": "isParticipantReady",
      "outputs": [
        {
          "internalType": "bool",
          "name": "",
          "type": "bool"
        }
      ],
      "stateMutability": "view",
      "type": "function"
    },
    {
      "inputs": [
        {
          "internalType": "address",
          "name": "",
          "type": "address"
        }
      ],
      "name": "organizations",
      "outputs": [
        {
          "internalType": "address",
          "name": "id",
          "type": "address"
        },
        {
          "internalType": "string",
          "name": "name",
          "type": "string"
        },
        {
          "internalType": "string",
          "name": "email",
          "type": "string"
        }
      ],
      "stateMutability": "view",
      "type": "function"
    },
    {
      "inputs": [
        {
          "internalType": "string",
          "name": "_email",
          "type": "string"
        },
        {
          "internalType": "uint256",
          "name": "_index",
          "type": "uint256"
        },
        {
          "internalType": "address",
          "name": "_userAddress",
          "type": "address"
        },
        {
          "internalType": "address",
          "name": "_organizationAddress",
          "type": "address"
        },
        {
          "internalType": "string",
          "name": "_cid",
          "type": "string"
        }
      ],
      "name": "redeemCertificate",
      "outputs": [],
      "stateMutability": "nonpayable",
      "type": "function"
    },
    {
      "inputs": [
        {
          "internalType": "address",
          "name": "",
          "type": "address"
        }
      ],
      "name": "users",
      "outputs": [
        {
          "internalType": "address",
          "name": "id",
          "type": "address"
        },
        {
          "internalType": "string",
          "name": "name",
          "type": "string"
        },
        {
          "internalType": "string",
          "name": "email",
          "type": "string"
        }
      ],
      "stateMutability": "view",
      "type": "function"
    }
  ],
  "bytecode": "0x608060405234801561001057600080fd5b50612635806100206000396000f3fe608060405234801561001057600080fd5b50600436106100cf5760003560e01c8063842f99441161008c578063d256f3d811610066578063d256f3d81461024c578063d7554a681461027c578063df10477014610298578063e6995a66146102b4576100cf565b8063842f9944146101ce578063a45d51ea146101fe578063a87430ba1461021a576100cf565b80630159c1b9146100d45780630931d3af146100f0578063295e80dc146101205780633d47a354146101505780634a74c3251461016c5780635a1f74061461019c575b600080fd5b6100ee60048036038101906100e9919061196d565b6102e4565b005b61010a600480360381019061010591906119f8565b6103dd565b6040516101179190611a40565b60405180910390f35b61013a600480360381019061013591906119f8565b610476565b6040516101479190611bfb565b60405180910390f35b61016a60048036038101906101659190611c1d565b610654565b005b61018660048036038101906101819190611cde565b610885565b6040516101939190611a40565b60405180910390f35b6101b660048036038101906101b191906119f8565b610a20565b6040516101c593929190611da6565b60405180910390f35b6101e860048036038101906101e39190611deb565b610b7a565b6040516101f59190611eed565b60405180910390f35b61021860048036038101906102139190611f0f565b610cb9565b005b610234600480360381019061022f91906119f8565b610e2e565b60405161024393929190611da6565b60405180910390f35b610266600480360381019061026191906119f8565b610f88565b604051610273919061214e565b60405180910390f35b61029660048036038101906102919190611c1d565b611194565b005b6102b260048036038101906102ad9190612170565b6113c1565b005b6102ce60048036038101906102c991906119f8565b611477565b6040516102db9190611a40565b60405180910390f35b60006040518060400160405280848152602001838152509050600160008573ffffffffffffffffffffffffffffffffffffffff1673ffffffffffffffffffffffffffffffffffffffff168152602001908152602001600020600301819080600181540180825580915050600190039060005260206000209060020201600090919091909150600082015181600001908161037e91906123eb565b50602082015181600101908051906020019061039b9291906115f5565b5050507f153594e72b817d485e2869681e89c7d4380a6c15a2024abbeefdc6e75995102f84846040516103cf9291906124bd565b60405180910390a150505050565b60008173ffffffffffffffffffffffffffffffffffffffff166000808473ffffffffffffffffffffffffffffffffffffffff1673ffffffffffffffffffffffffffffffffffffffff16815260200190815260200160002060000160009054906101000a900473ffffffffffffffffffffffffffffffffffffffff1673ffffffffffffffffffffffffffffffffffffffff16149050919050565b60606000808373ffffffffffffffffffffffffffffffffffffffff1673ffffffffffffffffffffffffffffffffffffffff168152602001908152602001600020600301805480602002602001604051908101604052809291908181526020016000905b82821015610649578382906000526020600020906003020160405180606001604052908160008201805461050c9061220e565b80601f01602080910402602001604051908101604052809291908181526020018280546105389061220e565b80156105855780601f1061055a57610100808354040283529160200191610585565b820191906000526020600020905b81548152906001019060200180831161056857829003601f168201915b505050505081526020016001820160009054906101000a900473ffffffffffffffffffffffffffffffffffffffff1673ffffffffffffffffffffffffffffffffffffffff1673ffffffffffffffffffffffffffffffffffffffff1681526020016002820160009054906101000a900473ffffffffffffffffffffffffffffffffffffffff1673ffffffffffffffffffffffffffffffffffffffff1673ffffffffffffffffffffffffffffffffffffffff1681525050815260200190600101906104d9565b505050509050919050565b8273ffffffffffffffffffffffffffffffffffffffff16600160008573ffffffffffffffffffffffffffffffffffffffff1673ffffffffffffffffffffffffffffffffffffffff16815260200190815260200160002060000160009054906101000a900473ffffffffffffffffffffffffffffffffffffffff1673ffffffffffffffffffffffffffffffffffffffff1603610724576040517f08c379a000000000000000000000000000000000000000000000000000000000815260040161071b90612539565b60405180910390fd5b82600160008573ffffffffffffffffffffffffffffffffffffffff1673ffffffffffffffffffffffffffffffffffffffff16815260200190815260200160002060000160006101000a81548173ffffffffffffffffffffffffffffffffffffffff021916908373ffffffffffffffffffffffffffffffffffffffff16021790555081600160008573ffffffffffffffffffffffffffffffffffffffff1673ffffffffffffffffffffffffffffffffffffffff16815260200190815260200160002060010190816107f491906123eb565b5080600160008573ffffffffffffffffffffffffffffffffffffffff1673ffffffffffffffffffffffffffffffffffffffff168152602001908152602001600020600201908161084491906123eb565b507ff099cf61e87eac71ecd300f54fdbc2f72ede778301f0103622a552a575e0d0c283838360405161087893929190611da6565b60405180910390a1505050565b600080600160008673ffffffffffffffffffffffffffffffffffffffff1673ffffffffffffffffffffffffffffffffffffffff16815260200190815260200160002060030183815481106108dc576108db612559565b5b9060005260206000209060020201600101805480602002602001604051908101604052809291908181526020016000905b828210156109b957838290600052602060002001805461092c9061220e565b80601f01602080910402602001604051908101604052809291908181526020018280546109589061220e565b80156109a55780601f1061097a576101008083540402835291602001916109a5565b820191906000526020600020905b81548152906001019060200180831161098857829003601f168201915b50505050508152602001906001019061090d565b50505050905060005b8151811015610a12576109ef8282815181106109e1576109e0612559565b5b602002602001015186611511565b156109ff57600192505050610a19565b8080610a0a906125b7565b9150506109c2565b5060009150505b9392505050565b60016020528060005260406000206000915090508060000160009054906101000a900473ffffffffffffffffffffffffffffffffffffffff1690806001018054610a699061220e565b80601f0160208091040260200160405190810160405280929190818152602001828054610a959061220e565b8015610ae25780601f10610ab757610100808354040283529160200191610ae2565b820191906000526020600020905b815481529060010190602001808311610ac557829003601f168201915b505050505090806002018054610af79061220e565b80601f0160208091040260200160405190810160405280929190818152602001828054610b239061220e565b8015610b705780601f10610b4557610100808354040283529160200191610b70565b820191906000526020600020905b815481529060010190602001808311610b5357829003601f168201915b5050505050905083565b6060600160008473ffffffffffffffffffffffffffffffffffffffff1673ffffffffffffffffffffffffffffffffffffffff1681526020019081526020016000206003018281548110610bd057610bcf612559565b5b9060005260206000209060020201600101805480602002602001604051908101604052809291908181526020016000905b82821015610cad578382906000526020600020018054610c209061220e565b80601f0160208091040260200160405190810160405280929190818152602001828054610c4c9061220e565b8015610c995780601f10610c6e57610100808354040283529160200191610c99565b820191906000526020600020905b815481529060010190602001808311610c7c57829003601f168201915b505050505081526020019060010190610c01565b50505050905092915050565b610cc4828686610885565b15610e2757600060405180606001604052808381526020018573ffffffffffffffffffffffffffffffffffffffff1681526020018473ffffffffffffffffffffffffffffffffffffffff1681525090506000808573ffffffffffffffffffffffffffffffffffffffff1673ffffffffffffffffffffffffffffffffffffffff1681526020019081526020016000206003018190806001815401808255809150506001900390600052602060002090600302016000909190919091506000820151816000019081610d9491906123eb565b5060208201518160010160006101000a81548173ffffffffffffffffffffffffffffffffffffffff021916908373ffffffffffffffffffffffffffffffffffffffff16021790555060408201518160020160006101000a81548173ffffffffffffffffffffffffffffffffffffffff021916908373ffffffffffffffffffffffffffffffffffffffff1602179055505050505b5050505050565b60006020528060005260406000206000915090508060000160009054906101000a900473ffffffffffffffffffffffffffffffffffffffff1690806001018054610e779061220e565b80601f0160208091040260200160405190810160405280929190818152602001828054610ea39061220e565b8015610ef05780601f10610ec557610100808354040283529160200191610ef0565b820191906000526020600020905b815481529060010190602001808311610ed357829003601f168201915b505050505090806002018054610f059061220e565b80601f0160208091040260200160405190810160405280929190818152602001828054610f319061220e565b8015610f7e5780601f10610f5357610100808354040283529160200191610f7e565b820191906000526020600020905b815481529060010190602001808311610f6157829003601f168201915b5050505050905083565b6060600160008373ffffffffffffffffffffffffffffffffffffffff1673ffffffffffffffffffffffffffffffffffffffff168152602001908152602001600020600301805480602002602001604051908101604052809291908181526020016000905b82821015611189578382906000526020600020906002020160405180604001604052908160008201805461101f9061220e565b80601f016020809104026020016040519081016040528092919081815260200182805461104b9061220e565b80156110985780601f1061106d57610100808354040283529160200191611098565b820191906000526020600020905b81548152906001019060200180831161107b57829003601f168201915b5050505050815260200160018201805480602002602001604051908101604052809291908181526020016000905b828210156111725783829060005260206000200180546110e59061220e565b80601f01602080910402602001604051908101604052809291908181526020018280546111119061220e565b801561115e5780601f106111335761010080835404028352916020019161115e565b820191906000526020600020905b81548152906001019060200180831161114157829003601f168201915b5050505050815260200190600101906110c6565b505050508152505081526020019060010190610fec565b505050509050919050565b8273ffffffffffffffffffffffffffffffffffffffff166000808573ffffffffffffffffffffffffffffffffffffffff1673ffffffffffffffffffffffffffffffffffffffff16815260200190815260200160002060000160009054906101000a900473ffffffffffffffffffffffffffffffffffffffff1673ffffffffffffffffffffffffffffffffffffffff1603611263576040517f08c379a000000000000000000000000000000000000000000000000000000000815260040161125a90612539565b60405180910390fd5b826000808573ffffffffffffffffffffffffffffffffffffffff1673ffffffffffffffffffffffffffffffffffffffff16815260200190815260200160002060000160006101000a81548173ffffffffffffffffffffffffffffffffffffffff021916908373ffffffffffffffffffffffffffffffffffffffff160217905550816000808573ffffffffffffffffffffffffffffffffffffffff1673ffffffffffffffffffffffffffffffffffffffff168152602001908152602001600020600101908161133191906123eb565b50806000808573ffffffffffffffffffffffffffffffffffffffff1673ffffffffffffffffffffffffffffffffffffffff168152602001908152602001600020600201908161138091906123eb565b507f8eab1db142a914aff8b515eedb9177bd7effaef6d714c41e30bdf152067786078383836040516113b493929190611da6565b60405180910390a1505050565b80600160008573ffffffffffffffffffffffffffffffffffffffff1673ffffffffffffffffffffffffffffffffffffffff168152602001908152602001600020600301838154811061141657611415612559565b5b9060005260206000209060020201600101908051906020019061143a9291906115f5565b507fa4e21399a9cf01bdf29bdf026d33bf802d442f9f6b41517920259145884e254c8160405161146a9190611eed565b60405180910390a1505050565b60008173ffffffffffffffffffffffffffffffffffffffff16600160008473ffffffffffffffffffffffffffffffffffffffff1673ffffffffffffffffffffffffffffffffffffffff16815260200190815260200160002060000160009054906101000a900473ffffffffffffffffffffffffffffffffffffffff1673ffffffffffffffffffffffffffffffffffffffff16149050919050565b60008083905060008390506000825190508151811461153657600093505050506115ef565b60005b818110156115e65782818151811061155457611553612559565b5b602001015160f81c60f81b7effffffffffffffffffffffffffffffffffffffffffffffffffffffffffffff191684828151811061159457611593612559565b5b602001015160f81c60f81b7effffffffffffffffffffffffffffffffffffffffffffffffffffffffffffff1916146115d35760009450505050506115ef565b80806115de906125b7565b915050611539565b50600193505050505b92915050565b82805482825590600052602060002090810192821561163d579160200282015b8281111561163c57825182908161162c91906123eb565b5091602001919060010190611615565b5b50905061164a919061164e565b5090565b5b8082111561166e57600081816116659190611672565b5060010161164f565b5090565b50805461167e9061220e565b6000825580601f1061169057506116af565b601f0160209004906000526020600020908101906116ae91906116b2565b5b50565b5b808211156116cb5760008160009055506001016116b3565b5090565b6000604051905090565b600080fd5b600080fd5b600073ffffffffffffffffffffffffffffffffffffffff82169050919050565b600061170e826116e3565b9050919050565b61171e81611703565b811461172957600080fd5b50565b60008135905061173b81611715565b92915050565b600080fd5b600080fd5b6000601f19601f8301169050919050565b7f4e487b7100000000000000000000000000000000000000000000000000000000600052604160045260246000fd5b6117948261174b565b810181811067ffffffffffffffff821117156117b3576117b261175c565b5b80604052505050565b60006117c66116cf565b90506117d2828261178b565b919050565b600067ffffffffffffffff8211156117f2576117f161175c565b5b6117fb8261174b565b9050602081019050919050565b82818337600083830152505050565b600061182a611825846117d7565b6117bc565b90508281526020810184848401111561184657611845611746565b5b611851848285611808565b509392505050565b600082601f83011261186e5761186d611741565b5b813561187e848260208601611817565b91505092915050565b600067ffffffffffffffff8211156118a2576118a161175c565b5b602082029050602081019050919050565b600080fd5b60006118cb6118c684611887565b6117bc565b905080838252602082019050602084028301858111156118ee576118ed6118b3565b5b835b8181101561193557803567ffffffffffffffff81111561191357611912611741565b5b8086016119208982611859565b855260208501945050506020810190506118f0565b5050509392505050565b600082601f83011261195457611953611741565b5b81356119648482602086016118b8565b91505092915050565b600080600060608486031215611986576119856116d9565b5b60006119948682870161172c565b935050602084013567ffffffffffffffff8111156119b5576119b46116de565b5b6119c186828701611859565b925050604084013567ffffffffffffffff8111156119e2576119e16116de565b5b6119ee8682870161193f565b9150509250925092565b600060208284031215611a0e57611a0d6116d9565b5b6000611a1c8482850161172c565b91505092915050565b60008115159050919050565b611a3a81611a25565b82525050565b6000602082019050611a556000830184611a31565b92915050565b600081519050919050565b600082825260208201905092915050565b6000819050602082019050919050565b600081519050919050565b600082825260208201905092915050565b60005b83811015611ac1578082015181840152602081019050611aa6565b60008484015250505050565b6000611ad882611a87565b611ae28185611a92565b9350611af2818560208601611aa3565b611afb8161174b565b840191505092915050565b611b0f81611703565b82525050565b60006060830160008301518482036000860152611b328282611acd565b9150506020830151611b476020860182611b06565b506040830151611b5a6040860182611b06565b508091505092915050565b6000611b718383611b15565b905092915050565b6000602082019050919050565b6000611b9182611a5b565b611b9b8185611a66565b935083602082028501611bad85611a77565b8060005b85811015611be95784840389528151611bca8582611b65565b9450611bd583611b79565b925060208a01995050600181019050611bb1565b50829750879550505050505092915050565b60006020820190508181036000830152611c158184611b86565b905092915050565b600080600060608486031215611c3657611c356116d9565b5b6000611c448682870161172c565b935050602084013567ffffffffffffffff811115611c6557611c646116de565b5b611c7186828701611859565b925050604084013567ffffffffffffffff811115611c9257611c916116de565b5b611c9e86828701611859565b9150509250925092565b6000819050919050565b611cbb81611ca8565b8114611cc657600080fd5b50565b600081359050611cd881611cb2565b92915050565b600080600060608486031215611cf757611cf66116d9565b5b6000611d058682870161172c565b935050602084013567ffffffffffffffff811115611d2657611d256116de565b5b611d3286828701611859565b9250506040611d4386828701611cc9565b9150509250925092565b611d5681611703565b82525050565b600082825260208201905092915050565b6000611d7882611a87565b611d828185611d5c565b9350611d92818560208601611aa3565b611d9b8161174b565b840191505092915050565b6000606082019050611dbb6000830186611d4d565b8181036020830152611dcd8185611d6d565b90508181036040830152611de18184611d6d565b9050949350505050565b60008060408385031215611e0257611e016116d9565b5b6000611e108582860161172c565b9250506020611e2185828601611cc9565b9150509250929050565b600081519050919050565b600082825260208201905092915050565b6000819050602082019050919050565b6000611e638383611acd565b905092915050565b6000602082019050919050565b6000611e8382611e2b565b611e8d8185611e36565b935083602082028501611e9f85611e47565b8060005b85811015611edb5784840389528151611ebc8582611e57565b9450611ec783611e6b565b925060208a01995050600181019050611ea3565b50829750879550505050505092915050565b60006020820190508181036000830152611f078184611e78565b905092915050565b600080600080600060a08688031215611f2b57611f2a6116d9565b5b600086013567ffffffffffffffff811115611f4957611f486116de565b5b611f5588828901611859565b9550506020611f6688828901611cc9565b9450506040611f778882890161172c565b9350506060611f888882890161172c565b925050608086013567ffffffffffffffff811115611fa957611fa86116de565b5b611fb588828901611859565b9150509295509295909350565b600081519050919050565b600082825260208201905092915050565b6000819050602082019050919050565b600082825260208201905092915050565b600061200a82611e2b565b6120148185611fee565b93508360208202850161202685611e47565b8060005b8581101561206257848403895281516120438582611e57565b945061204e83611e6b565b925060208a0199505060018101905061202a565b50829750879550505050505092915050565b600060408301600083015184820360008601526120918282611acd565b915050602083015184820360208601526120ab8282611fff565b9150508091505092915050565b60006120c48383612074565b905092915050565b6000602082019050919050565b60006120e482611fc2565b6120ee8185611fcd565b93508360208202850161210085611fde565b8060005b8581101561213c578484038952815161211d85826120b8565b9450612128836120cc565b925060208a01995050600181019050612104565b50829750879550505050505092915050565b6000602082019050818103600083015261216881846120d9565b905092915050565b600080600060608486031215612189576121886116d9565b5b60006121978682870161172c565b93505060206121a886828701611cc9565b925050604084013567ffffffffffffffff8111156121c9576121c86116de565b5b6121d58682870161193f565b9150509250925092565b7f4e487b7100000000000000000000000000000000000000000000000000000000600052602260045260246000fd5b6000600282049050600182168061222657607f821691505b602082108103612239576122386121df565b5b50919050565b60008190508160005260206000209050919050565b60006020601f8301049050919050565b600082821b905092915050565b6000600883026122a17fffffffffffffffffffffffffffffffffffffffffffffffffffffffffffffffff82612264565b6122ab8683612264565b95508019841693508086168417925050509392505050565b6000819050919050565b60006122e86122e36122de84611ca8565b6122c3565b611ca8565b9050919050565b6000819050919050565b612302836122cd565b61231661230e826122ef565b848454612271565b825550505050565b600090565b61232b61231e565b6123368184846122f9565b505050565b5b8181101561235a5761234f600082612323565b60018101905061233c565b5050565b601f82111561239f576123708161223f565b61237984612254565b81016020851015612388578190505b61239c61239485612254565b83018261233b565b50505b505050565b600082821c905092915050565b60006123c2600019846008026123a4565b1980831691505092915050565b60006123db83836123b1565b9150826002028217905092915050565b6123f482611a87565b67ffffffffffffffff81111561240d5761240c61175c565b5b612417825461220e565b61242282828561235e565b600060209050601f8311600181146124555760008415612443578287015190505b61244d85826123cf565b8655506124b5565b601f1984166124638661223f565b60005b8281101561248b57848901518255600182019150602085019450602081019050612466565b868310156124a857848901516124a4601f8916826123b1565b8355505b6001600288020188555050505b505050505050565b60006040820190506124d26000830185611d4d565b81810360208301526124e48184611d6d565b90509392505050565b7f54686973207573657220616c7265616479206578697374732e00000000000000600082015250565b6000612523601983611d5c565b915061252e826124ed565b602082019050919050565b6000602082019050818103600083015261255281612516565b9050919050565b7f4e487b7100000000000000000000000000000000000000000000000000000000600052603260045260246000fd5b7f4e487b7100000000000000000000000000000000000000000000000000000000600052601160045260246000fd5b60006125c282611ca8565b91507fffffffffffffffffffffffffffffffffffffffffffffffffffffffffffffffff82036125f4576125f3612588565b5b60018201905091905056fea26469706673582212203382009c968810d7abe6ba8d5b086c4706f9abd4649865ebc64d8a1837a53d2164736f6c63430008110033",
  "linkReferences": {},
  "deployedLinkReferences": {}
}