{
  "_format": "hh-sol-artifact-1",
  "contractName": "Nareswara",
  "sourceName": "contracts/Nareswara.sol",
  "abi": [
    {
      "anonymous": false,
      "inputs": [
        {
          "indexed": false,
          "internalType": "int256",
          "name": "id",
          "type": "int256"
        },
        {
          "indexed": false,
          "internalType": "string",
          "name": "email",
          "type": "string"
        }
      ],
      "name": "OrganizationAdded",
      "type": "event"
    },
    {
      "anonymous": false,
      "inputs": [
        {
          "indexed": false,
          "internalType": "int256",
          "name": "id",
          "type": "int256"
        },
        {
          "indexed": false,
          "internalType": "string",
          "name": "email",
          "type": "string"
        }
      ],
      "name": "UserAdded",
      "type": "event"
    },
    {
      "inputs": [
        {
          "components": [
            {
              "internalType": "string",
              "name": "cid",
              "type": "string"
            },
            {
              "internalType": "int256",
              "name": "userId",
              "type": "int256"
            },
            {
              "internalType": "int256",
              "name": "organizationId",
              "type": "int256"
            }
          ],
          "internalType": "struct Nareswara.Certificate[]",
          "name": "_certificates",
          "type": "tuple[]"
        }
      ],
      "name": "addCertificate",
      "outputs": [],
      "stateMutability": "nonpayable",
      "type": "function"
    },
    {
      "inputs": [
        {
          "internalType": "string",
          "name": "_email",
          "type": "string"
        }
      ],
      "name": "addOrganization",
      "outputs": [],
      "stateMutability": "nonpayable",
      "type": "function"
    },
    {
      "inputs": [
        {
          "internalType": "string",
          "name": "_email",
          "type": "string"
        }
      ],
      "name": "addUser",
      "outputs": [],
      "stateMutability": "nonpayable",
      "type": "function"
    },
    {
      "inputs": [
        {
          "internalType": "int256",
          "name": "_id",
          "type": "int256"
        }
      ],
      "name": "getAllCertificate",
      "outputs": [
        {
          "components": [
            {
              "internalType": "string",
              "name": "cid",
              "type": "string"
            },
            {
              "internalType": "int256",
              "name": "userId",
              "type": "int256"
            },
            {
              "internalType": "int256",
              "name": "organizationId",
              "type": "int256"
            }
          ],
          "internalType": "struct Nareswara.Certificate[]",
          "name": "",
          "type": "tuple[]"
        }
      ],
      "stateMutability": "view",
      "type": "function"
    },
    {
      "inputs": [],
      "name": "getNowOrganization",
      "outputs": [
        {
          "internalType": "int256",
          "name": "",
          "type": "int256"
        }
      ],
      "stateMutability": "view",
      "type": "function"
    },
    {
      "inputs": [],
      "name": "getNowUser",
      "outputs": [
        {
          "internalType": "int256",
          "name": "",
          "type": "int256"
        }
      ],
      "stateMutability": "view",
      "type": "function"
    },
    {
      "inputs": [],
      "name": "indexOrganization",
      "outputs": [
        {
          "internalType": "int256",
          "name": "",
          "type": "int256"
        }
      ],
      "stateMutability": "view",
      "type": "function"
    },
    {
      "inputs": [],
      "name": "indexUser",
      "outputs": [
        {
          "internalType": "int256",
          "name": "",
          "type": "int256"
        }
      ],
      "stateMutability": "view",
      "type": "function"
    },
    {
      "inputs": [
        {
          "internalType": "int256",
          "name": "",
          "type": "int256"
        }
      ],
      "name": "organizations",
      "outputs": [
        {
          "internalType": "int256",
          "name": "id",
          "type": "int256"
        },
        {
          "internalType": "string",
          "name": "email",
          "type": "string"
        }
      ],
      "stateMutability": "view",
      "type": "function"
    },
    {
      "inputs": [
        {
          "internalType": "int256",
          "name": "",
          "type": "int256"
        }
      ],
      "name": "users",
      "outputs": [
        {
          "internalType": "int256",
          "name": "id",
          "type": "int256"
        },
        {
          "internalType": "string",
          "name": "email",
          "type": "string"
        }
      ],
      "stateMutability": "view",
      "type": "function"
    },
    {
      "inputs": [
        {
          "internalType": "int256",
          "name": "_id",
          "type": "int256"
        },
        {
          "internalType": "string",
          "name": "_cid",
          "type": "string"
        }
      ],
      "name": "verifyCertificate",
      "outputs": [
        {
          "internalType": "bool",
          "name": "",
          "type": "bool"
        }
      ],
      "stateMutability": "view",
      "type": "function"
    }
  ],
  "bytecode": "0x608060405234801561001057600080fd5b506114b5806100206000396000f3fe608060405234801561001057600080fd5b50600436106100a95760003560e01c8063710de50411610071578063710de50414610167578063741d8fc514610183578063af597300146101b4578063b84373e4146101d0578063b97938c0146101ee578063f4b1f8c71461021e576100a9565b8063067779d4146100ae5780630ac750ac146100cc5780630ca6ffed146100fc57806318b8275a1461012d5780634a8a2abb14610149575b600080fd5b6100b661023c565b6040516100c391906109c3565b60405180910390f35b6100e660048036038101906100e19190610a1e565b610246565b6040516100f39190610bfc565b60405180910390f35b61011660048036038101906101119190610a1e565b610361565b604051610124929190610c68565b60405180910390f35b61014760048036038101906101429190610dcd565b61040d565b005b6101516104b6565b60405161015e91906109c3565b60405180910390f35b610181600480360381019061017c9190610dcd565b6104bc565b005b61019d60048036038101906101989190610a1e565b610569565b6040516101ab929190610c68565b60405180910390f35b6101ce60048036038101906101c99190610f86565b610615565b005b6101d861073c565b6040516101e591906109c3565b60405180910390f35b61020860048036038101906102039190610fcf565b610742565b6040516102159190611046565b60405180910390f35b6102266108bd565b60405161023391906109c3565b60405180910390f35b6000600154905090565b606060026000838152602001908152602001600020600201805480602002602001604051908101604052809291908181526020016000905b8282101561035657838290600052602060002090600302016040518060600160405290816000820180546102b190611090565b80601f01602080910402602001604051908101604052809291908181526020018280546102dd90611090565b801561032a5780601f106102ff5761010080835404028352916020019161032a565b820191906000526020600020905b81548152906001019060200180831161030d57829003601f168201915b50505050508152602001600182015481526020016002820154815250508152602001906001019061027e565b505050509050919050565b600360205280600052604060002060009150905080600001549080600101805461038a90611090565b80601f01602080910402602001604051908101604052809291908181526020018280546103b690611090565b80156104035780601f106103d857610100808354040283529160200191610403565b820191906000526020600020905b8154815290600101906020018083116103e657829003601f168201915b5050505050905082565b600054600260008054815260200190815260200160002060000181905550806002600080548152602001908152602001600020600101908161044f9190611277565b5060008081548092919061046290611378565b91905055507fcde615d106dc5d193bd7713d2c3472e2a8b45f981d25e5637df0461fb70c960a6000808154610496906113c0565b919050819055826040516104ab929190610c68565b60405180910390a150565b60005481565b600154600360006001548152602001908152602001600020600001819055508060036000600154815260200190815260200160002060010190816105009190611277565b506001600081548092919061051490611378565b91905055507f7cc315cb5ee43114a77053b0ca07e313e1abf2149d954099efbfa912d97eb145600160008154610549906113c0565b9190508190558260405161055e929190610c68565b60405180910390a150565b600260205280600052604060002060009150905080600001549080600101805461059290611090565b80601f01602080910402602001604051908101604052809291908181526020018280546105be90611090565b801561060b5780601f106105e05761010080835404028352916020019161060b565b820191906000526020600020905b8154815290600101906020018083116105ee57829003601f168201915b5050505050905082565b60005b8151811015610738576000604051806060016040528084848151811061064157610640611408565b5b602002602001015160000151815260200184848151811061066557610664611408565b5b602002602001015160200151815260200184848151811061068957610688611408565b5b6020026020010151604001518152509050600260008484815181106106b1576106b0611408565b5b6020026020010151602001518152602001908152602001600020600201819080600181540180825580915050600190039060005260206000209060030201600090919091909150600082015181600001908161070d9190611277565b506020820151816001015560408201518160020155505050808061073090611437565b915050610618565b5050565b60015481565b60008060026000858152602001908152602001600020600201805480602002602001604051908101604052809291908181526020016000905b8282101561085357838290600052602060002090600302016040518060600160405290816000820180546107ae90611090565b80601f01602080910402602001604051908101604052809291908181526020018280546107da90611090565b80156108275780601f106107fc57610100808354040283529160200191610827565b820191906000526020600020905b81548152906001019060200180831161080a57829003601f168201915b50505050508152602001600182015481526020016002820154815250508152602001906001019061077b565b50505050905060005b81518110156108b05761088d82828151811061087b5761087a611408565b5b602002602001015160000151856108c6565b1561089d576001925050506108b7565b80806108a890611437565b91505061085c565b5060009150505b92915050565b60008054905090565b6000808390506000839050600082519050815181146108eb57600093505050506109a4565b60005b8181101561099b5782818151811061090957610908611408565b5b602001015160f81c60f81b7effffffffffffffffffffffffffffffffffffffffffffffffffffffffffffff191684828151811061094957610948611408565b5b602001015160f81c60f81b7effffffffffffffffffffffffffffffffffffffffffffffffffffffffffffff1916146109885760009450505050506109a4565b808061099390611437565b9150506108ee565b50600193505050505b92915050565b6000819050919050565b6109bd816109aa565b82525050565b60006020820190506109d860008301846109b4565b92915050565b6000604051905090565b600080fd5b600080fd5b6109fb816109aa565b8114610a0657600080fd5b50565b600081359050610a18816109f2565b92915050565b600060208284031215610a3457610a336109e8565b5b6000610a4284828501610a09565b91505092915050565b600081519050919050565b600082825260208201905092915050565b6000819050602082019050919050565b600081519050919050565b600082825260208201905092915050565b60005b83811015610ab1578082015181840152602081019050610a96565b60008484015250505050565b6000601f19601f8301169050919050565b6000610ad982610a77565b610ae38185610a82565b9350610af3818560208601610a93565b610afc81610abd565b840191505092915050565b610b10816109aa565b82525050565b60006060830160008301518482036000860152610b338282610ace565b9150506020830151610b486020860182610b07565b506040830151610b5b6040860182610b07565b508091505092915050565b6000610b728383610b16565b905092915050565b6000602082019050919050565b6000610b9282610a4b565b610b9c8185610a56565b935083602082028501610bae85610a67565b8060005b85811015610bea5784840389528151610bcb8582610b66565b9450610bd683610b7a565b925060208a01995050600181019050610bb2565b50829750879550505050505092915050565b60006020820190508181036000830152610c168184610b87565b905092915050565b600082825260208201905092915050565b6000610c3a82610a77565b610c448185610c1e565b9350610c54818560208601610a93565b610c5d81610abd565b840191505092915050565b6000604082019050610c7d60008301856109b4565b8181036020830152610c8f8184610c2f565b90509392505050565b600080fd5b600080fd5b7f4e487b7100000000000000000000000000000000000000000000000000000000600052604160045260246000fd5b610cda82610abd565b810181811067ffffffffffffffff82111715610cf957610cf8610ca2565b5b80604052505050565b6000610d0c6109de565b9050610d188282610cd1565b919050565b600067ffffffffffffffff821115610d3857610d37610ca2565b5b610d4182610abd565b9050602081019050919050565b82818337600083830152505050565b6000610d70610d6b84610d1d565b610d02565b905082815260208101848484011115610d8c57610d8b610c9d565b5b610d97848285610d4e565b509392505050565b600082601f830112610db457610db3610c98565b5b8135610dc4848260208601610d5d565b91505092915050565b600060208284031215610de357610de26109e8565b5b600082013567ffffffffffffffff811115610e0157610e006109ed565b5b610e0d84828501610d9f565b91505092915050565b600067ffffffffffffffff821115610e3157610e30610ca2565b5b602082029050602081019050919050565b600080fd5b600080fd5b600080fd5b600060608284031215610e6757610e66610e47565b5b610e716060610d02565b9050600082013567ffffffffffffffff811115610e9157610e90610e4c565b5b610e9d84828501610d9f565b6000830152506020610eb184828501610a09565b6020830152506040610ec584828501610a09565b60408301525092915050565b6000610ee4610edf84610e16565b610d02565b90508083825260208201905060208402830185811115610f0757610f06610e42565b5b835b81811015610f4e57803567ffffffffffffffff811115610f2c57610f2b610c98565b5b808601610f398982610e51565b85526020850194505050602081019050610f09565b5050509392505050565b600082601f830112610f6d57610f6c610c98565b5b8135610f7d848260208601610ed1565b91505092915050565b600060208284031215610f9c57610f9b6109e8565b5b600082013567ffffffffffffffff811115610fba57610fb96109ed565b5b610fc684828501610f58565b91505092915050565b60008060408385031215610fe657610fe56109e8565b5b6000610ff485828601610a09565b925050602083013567ffffffffffffffff811115611015576110146109ed565b5b61102185828601610d9f565b9150509250929050565b60008115159050919050565b6110408161102b565b82525050565b600060208201905061105b6000830184611037565b92915050565b7f4e487b7100000000000000000000000000000000000000000000000000000000600052602260045260246000fd5b600060028204905060018216806110a857607f821691505b6020821081036110bb576110ba611061565b5b50919050565b60008190508160005260206000209050919050565b60006020601f8301049050919050565b600082821b905092915050565b6000600883026111237fffffffffffffffffffffffffffffffffffffffffffffffffffffffffffffffff826110e6565b61112d86836110e6565b95508019841693508086168417925050509392505050565b6000819050919050565b6000819050919050565b600061117461116f61116a84611145565b61114f565b611145565b9050919050565b6000819050919050565b61118e83611159565b6111a261119a8261117b565b8484546110f3565b825550505050565b600090565b6111b76111aa565b6111c2818484611185565b505050565b5b818110156111e6576111db6000826111af565b6001810190506111c8565b5050565b601f82111561122b576111fc816110c1565b611205846110d6565b81016020851015611214578190505b611228611220856110d6565b8301826111c7565b50505b505050565b600082821c905092915050565b600061124e60001984600802611230565b1980831691505092915050565b6000611267838361123d565b9150826002028217905092915050565b61128082610a77565b67ffffffffffffffff81111561129957611298610ca2565b5b6112a38254611090565b6112ae8282856111ea565b600060209050601f8311600181146112e157600084156112cf578287015190505b6112d9858261125b565b865550611341565b601f1984166112ef866110c1565b60005b82811015611317578489015182556001820191506020850194506020810190506112f2565b868310156113345784890151611330601f89168261123d565b8355505b6001600288020188555050505b505050505050565b7f4e487b7100000000000000000000000000000000000000000000000000000000600052601160045260246000fd5b6000611383826109aa565b91507f7fffffffffffffffffffffffffffffffffffffffffffffffffffffffffffffff82036113b5576113b4611349565b5b600182019050919050565b60006113cb826109aa565b91507f800000000000000000000000000000000000000000000000000000000000000082036113fd576113fc611349565b5b600182039050919050565b7f4e487b7100000000000000000000000000000000000000000000000000000000600052603260045260246000fd5b600061144282611145565b91507fffffffffffffffffffffffffffffffffffffffffffffffffffffffffffffffff820361147457611473611349565b5b60018201905091905056fea2646970667358221220542e632318de39edf5cba548905f852cd8b788201b0744a8a22ceb73270a96aa64736f6c63430008110033",
  "linkReferences": {},
  "deployedLinkReferences": {}
}