{
  "_format": "hh-sol-artifact-1",
  "contractName": "Nareswara",
  "sourceName": "contracts/Nareswara.sol",
  "abi": [
    {
      "anonymous": false,
      "inputs": [
        {
          "indexed": false,
          "internalType": "string[]",
          "name": "certificateForPublic",
          "type": "string[]"
        }
      ],
      "name": "CertificateAdded",
      "type": "event"
    },
    {
      "anonymous": false,
      "inputs": [
        {
          "indexed": false,
          "internalType": "address",
          "name": "id",
          "type": "address"
        },
        {
          "indexed": false,
          "internalType": "string",
          "name": "eventName",
          "type": "string"
        }
      ],
      "name": "EventAdded",
      "type": "event"
    },
    {
      "anonymous": false,
      "inputs": [
        {
          "indexed": false,
          "internalType": "address",
          "name": "id",
          "type": "address"
        },
        {
          "indexed": false,
          "internalType": "string",
          "name": "name",
          "type": "string"
        },
        {
          "indexed": false,
          "internalType": "string",
          "name": "email",
          "type": "string"
        }
      ],
      "name": "OrganizationAdded",
      "type": "event"
    },
    {
      "anonymous": false,
      "inputs": [
        {
          "indexed": false,
          "internalType": "string[]",
          "name": "participants",
          "type": "string[]"
        }
      ],
      "name": "ParticipantAdded",
      "type": "event"
    },
    {
      "anonymous": false,
      "inputs": [
        {
          "indexed": false,
          "internalType": "address",
          "name": "userAddress",
          "type": "address"
        },
        {
          "indexed": false,
          "internalType": "string",
          "name": "name",
          "type": "string"
        },
        {
          "indexed": false,
          "internalType": "string",
          "name": "email",
          "type": "string"
        }
      ],
      "name": "UserAdded",
      "type": "event"
    },
    {
      "inputs": [
        {
          "internalType": "address",
          "name": "_organizationAddress",
          "type": "address"
        },
        {
          "internalType": "string",
          "name": "_eventName",
          "type": "string"
        },
        {
          "internalType": "string[]",
          "name": "_participants",
          "type": "string[]"
        }
      ],
      "name": "addEvent",
      "outputs": [],
      "stateMutability": "nonpayable",
      "type": "function"
    },
    {
      "inputs": [
        {
          "internalType": "address",
          "name": "_organizationAddress",
          "type": "address"
        },
        {
          "internalType": "string",
          "name": "_name",
          "type": "string"
        },
        {
          "internalType": "string",
          "name": "_email",
          "type": "string"
        }
      ],
      "name": "addOrganization",
      "outputs": [],
      "stateMutability": "nonpayable",
      "type": "function"
    },
    {
      "inputs": [
        {
          "internalType": "address",
          "name": "_organizationAddress",
          "type": "address"
        },
        {
          "internalType": "uint256",
          "name": "_index",
          "type": "uint256"
        },
        {
          "internalType": "string[]",
          "name": "_participants",
          "type": "string[]"
        }
      ],
      "name": "addParticipant",
      "outputs": [],
      "stateMutability": "nonpayable",
      "type": "function"
    },
    {
      "inputs": [
        {
          "internalType": "address",
          "name": "_userAddress",
          "type": "address"
        },
        {
          "internalType": "string",
          "name": "_name",
          "type": "string"
        },
        {
          "internalType": "string",
          "name": "_email",
          "type": "string"
        }
      ],
      "name": "addUser",
      "outputs": [],
      "stateMutability": "nonpayable",
      "type": "function"
    },
    {
      "inputs": [
        {
          "internalType": "address",
          "name": "_userAddress",
          "type": "address"
        }
      ],
      "name": "getAllCertificate",
      "outputs": [
        {
          "components": [
            {
              "internalType": "string",
              "name": "cid",
              "type": "string"
            },
            {
              "internalType": "address",
              "name": "userAddress",
              "type": "address"
            },
            {
              "internalType": "address",
              "name": "issuerAddress",
              "type": "address"
            }
          ],
          "internalType": "struct Nareswara.Certificate[]",
          "name": "",
          "type": "tuple[]"
        }
      ],
      "stateMutability": "view",
      "type": "function"
    },
    {
      "inputs": [],
      "name": "getAllCertificate",
      "outputs": [
        {
          "components": [
            {
              "internalType": "string",
              "name": "cid",
              "type": "string"
            },
            {
              "internalType": "address",
              "name": "userAddress",
              "type": "address"
            },
            {
              "internalType": "address",
              "name": "issuerAddress",
              "type": "address"
            }
          ],
          "internalType": "struct Nareswara.Certificate[]",
          "name": "",
          "type": "tuple[]"
        }
      ],
      "stateMutability": "view",
      "type": "function"
    },
    {
      "inputs": [
        {
          "internalType": "address",
          "name": "_organizationAddress",
          "type": "address"
        }
      ],
      "name": "getAllEvent",
      "outputs": [
        {
          "components": [
            {
              "internalType": "string",
              "name": "name",
              "type": "string"
            },
            {
              "internalType": "string[]",
              "name": "participants",
              "type": "string[]"
            }
          ],
          "internalType": "struct Nareswara.Event[]",
          "name": "",
          "type": "tuple[]"
        }
      ],
      "stateMutability": "view",
      "type": "function"
    },
    {
      "inputs": [
        {
          "internalType": "address",
          "name": "_organizationAddress",
          "type": "address"
        },
        {
          "internalType": "uint256",
          "name": "_index",
          "type": "uint256"
        }
      ],
      "name": "getAllParticipant",
      "outputs": [
        {
          "internalType": "string[]",
          "name": "",
          "type": "string[]"
        }
      ],
      "stateMutability": "view",
      "type": "function"
    },
    {
      "inputs": [
        {
          "internalType": "address",
          "name": "_organizationAddress",
          "type": "address"
        }
      ],
      "name": "getOrganizationExists",
      "outputs": [
        {
          "internalType": "bool",
          "name": "",
          "type": "bool"
        }
      ],
      "stateMutability": "view",
      "type": "function"
    },
    {
      "inputs": [
        {
          "internalType": "address",
          "name": "_userAddress",
          "type": "address"
        }
      ],
      "name": "getUserExists",
      "outputs": [
        {
          "internalType": "bool",
          "name": "",
          "type": "bool"
        }
      ],
      "stateMutability": "view",
      "type": "function"
    },
    {
      "inputs": [
        {
          "internalType": "address",
          "name": "_organizationAddress",
          "type": "address"
        },
        {
          "internalType": "string",
          "name": "_email",
          "type": "string"
        },
        {
          "internalType": "uint256",
          "name": "_index",
          "type": "uint256"
        }
      ],
      "name": "isParticipantReady",
      "outputs": [
        {
          "internalType": "bool",
          "name": "",
          "type": "bool"
        }
      ],
      "stateMutability": "view",
      "type": "function"
    },
    {
      "inputs": [
        {
          "internalType": "address",
          "name": "",
          "type": "address"
        }
      ],
      "name": "organizations",
      "outputs": [
        {
          "internalType": "address",
          "name": "id",
          "type": "address"
        },
        {
          "internalType": "string",
          "name": "name",
          "type": "string"
        },
        {
          "internalType": "string",
          "name": "email",
          "type": "string"
        }
      ],
      "stateMutability": "view",
      "type": "function"
    },
    {
      "inputs": [
        {
          "components": [
            {
              "internalType": "string",
              "name": "cid",
              "type": "string"
            },
            {
              "internalType": "address",
              "name": "userAddress",
              "type": "address"
            },
            {
              "internalType": "address",
              "name": "issuerAddress",
              "type": "address"
            }
          ],
          "internalType": "struct Nareswara.Certificate[]",
          "name": "_certificates",
          "type": "tuple[]"
        }
      ],
      "name": "redeemCertificate",
      "outputs": [],
      "stateMutability": "nonpayable",
      "type": "function"
    },
    {
      "inputs": [
        {
          "internalType": "address",
          "name": "",
          "type": "address"
        }
      ],
      "name": "users",
      "outputs": [
        {
          "internalType": "address",
          "name": "id",
          "type": "address"
        },
        {
          "internalType": "string",
          "name": "name",
          "type": "string"
        },
        {
          "internalType": "string",
          "name": "email",
          "type": "string"
        }
      ],
      "stateMutability": "view",
      "type": "function"
    },
    {
      "inputs": [
        {
          "internalType": "string",
          "name": "_cid",
          "type": "string"
        }
      ],
      "name": "verifyCertificate",
      "outputs": [
        {
          "internalType": "bool",
          "name": "",
          "type": "bool"
        }
      ],
      "stateMutability": "view",
      "type": "function"
    }
  ],
  "bytecode": "0x608060405234801561001057600080fd5b50612b01806100206000396000f3fe608060405234801561001057600080fd5b50600436106100f55760003560e01c8063842f994411610097578063d7554a6811610066578063d7554a68146102d2578063df104770146102ee578063e6995a661461030a578063ecadd4431461033a576100f5565b8063842f9944146102105780638b23d87514610240578063a87430ba14610270578063d256f3d8146102a2576100f5565b80633d47a354116100d35780633d47a3541461017657806342bb8fb2146101925780634a74c325146101ae5780635a1f7406146101de576100f5565b80630159c1b9146100fa5780630931d3af14610116578063295e80dc14610146575b600080fd5b610114600480360381019061010f9190611cef565b610358565b005b610130600480360381019061012b9190611d7a565b610451565b60405161013d9190611dc2565b60405180910390f35b610160600480360381019061015b9190611d7a565b6104eb565b60405161016d9190611f7d565b60405180910390f35b610190600480360381019061018b9190611f9f565b6106ca565b005b6101ac60048036038101906101a79190612195565b6108fb565b005b6101c860048036038101906101c39190612214565b610ae9565b6040516101d59190611dc2565b60405180910390f35b6101f860048036038101906101f39190611d7a565b610c84565b604051610207939291906122dc565b60405180910390f35b61022a60048036038101906102259190612321565b610dde565b6040516102379190612423565b60405180910390f35b61025a60048036038101906102559190612445565b610f1d565b6040516102679190611dc2565b60405180910390f35b61028a60048036038101906102859190611d7a565b61100f565b604051610299939291906122dc565b60405180910390f35b6102bc60048036038101906102b79190611d7a565b611169565b6040516102c9919061261a565b60405180910390f35b6102ec60048036038101906102e79190611f9f565b611375565b005b6103086004803603810190610303919061263c565b6115a6565b005b610324600480360381019061031f9190611d7a565b61165c565b6040516103319190611dc2565b60405180910390f35b6103426116f6565b60405161034f9190611f7d565b60405180910390f35b60006040518060400160405280848152602001838152509050600360008573ffffffffffffffffffffffffffffffffffffffff1673ffffffffffffffffffffffffffffffffffffffff16815260200190815260200160002060030181908060018154018082558091505060019003906000526020600020906002020160009091909190915060008201518160000190816103f291906128b7565b50602082015181600101908051906020019061040f929190611977565b5050507f153594e72b817d485e2869681e89c7d4380a6c15a2024abbeefdc6e75995102f8484604051610443929190612989565b60405180910390a150505050565b60008173ffffffffffffffffffffffffffffffffffffffff16600260008473ffffffffffffffffffffffffffffffffffffffff1673ffffffffffffffffffffffffffffffffffffffff16815260200190815260200160002060000160009054906101000a900473ffffffffffffffffffffffffffffffffffffffff1673ffffffffffffffffffffffffffffffffffffffff16149050919050565b6060600260008373ffffffffffffffffffffffffffffffffffffffff1673ffffffffffffffffffffffffffffffffffffffff168152602001908152602001600020600301805480602002602001604051908101604052809291908181526020016000905b828210156106bf5783829060005260206000209060030201604051806060016040529081600082018054610582906126da565b80601f01602080910402602001604051908101604052809291908181526020018280546105ae906126da565b80156105fb5780601f106105d0576101008083540402835291602001916105fb565b820191906000526020600020905b8154815290600101906020018083116105de57829003601f168201915b505050505081526020016001820160009054906101000a900473ffffffffffffffffffffffffffffffffffffffff1673ffffffffffffffffffffffffffffffffffffffff1673ffffffffffffffffffffffffffffffffffffffff1681526020016002820160009054906101000a900473ffffffffffffffffffffffffffffffffffffffff1673ffffffffffffffffffffffffffffffffffffffff1673ffffffffffffffffffffffffffffffffffffffff16815250508152602001906001019061054f565b505050509050919050565b8273ffffffffffffffffffffffffffffffffffffffff16600360008573ffffffffffffffffffffffffffffffffffffffff1673ffffffffffffffffffffffffffffffffffffffff16815260200190815260200160002060000160009054906101000a900473ffffffffffffffffffffffffffffffffffffffff1673ffffffffffffffffffffffffffffffffffffffff160361079a576040517f08c379a000000000000000000000000000000000000000000000000000000000815260040161079190612a05565b60405180910390fd5b82600360008573ffffffffffffffffffffffffffffffffffffffff1673ffffffffffffffffffffffffffffffffffffffff16815260200190815260200160002060000160006101000a81548173ffffffffffffffffffffffffffffffffffffffff021916908373ffffffffffffffffffffffffffffffffffffffff16021790555081600360008573ffffffffffffffffffffffffffffffffffffffff1673ffffffffffffffffffffffffffffffffffffffff168152602001908152602001600020600101908161086a91906128b7565b5080600360008573ffffffffffffffffffffffffffffffffffffffff1673ffffffffffffffffffffffffffffffffffffffff16815260200190815260200160002060020190816108ba91906128b7565b507ff099cf61e87eac71ecd300f54fdbc2f72ede778301f0103622a552a575e0d0c28383836040516108ee939291906122dc565b60405180910390a1505050565b60005b8151811015610ae5576000604051806060016040528084848151811061092757610926612a25565b5b602002602001015160000151815260200184848151811061094b5761094a612a25565b5b60200260200101516020015173ffffffffffffffffffffffffffffffffffffffff16815260200184848151811061098557610984612a25565b5b60200260200101516040015173ffffffffffffffffffffffffffffffffffffffff168152509050600181908060018154018082558091505060019003906000526020600020906003020160009091909190915060008201518160000190816109ed91906128b7565b5060208201518160010160006101000a81548173ffffffffffffffffffffffffffffffffffffffff021916908373ffffffffffffffffffffffffffffffffffffffff16021790555060408201518160020160006101000a81548173ffffffffffffffffffffffffffffffffffffffff021916908373ffffffffffffffffffffffffffffffffffffffff16021790555050506000838381518110610a9357610a92612a25565b5b602002602001015160000151908060018154018082558091505060019003906000526020600020016000909190919091509081610ad091906128b7565b50508080610add90612a83565b9150506108fe565b5050565b600080600360008673ffffffffffffffffffffffffffffffffffffffff1673ffffffffffffffffffffffffffffffffffffffff1681526020019081526020016000206003018381548110610b4057610b3f612a25565b5b9060005260206000209060020201600101805480602002602001604051908101604052809291908181526020016000905b82821015610c1d578382906000526020600020018054610b90906126da565b80601f0160208091040260200160405190810160405280929190818152602001828054610bbc906126da565b8015610c095780601f10610bde57610100808354040283529160200191610c09565b820191906000526020600020905b815481529060010190602001808311610bec57829003601f168201915b505050505081526020019060010190610b71565b50505050905060005b8151811015610c7657610c53828281518110610c4557610c44612a25565b5b602002602001015186611893565b15610c6357600192505050610c7d565b8080610c6e90612a83565b915050610c26565b5060009150505b9392505050565b60036020528060005260406000206000915090508060000160009054906101000a900473ffffffffffffffffffffffffffffffffffffffff1690806001018054610ccd906126da565b80601f0160208091040260200160405190810160405280929190818152602001828054610cf9906126da565b8015610d465780601f10610d1b57610100808354040283529160200191610d46565b820191906000526020600020905b815481529060010190602001808311610d2957829003601f168201915b505050505090806002018054610d5b906126da565b80601f0160208091040260200160405190810160405280929190818152602001828054610d87906126da565b8015610dd45780601f10610da957610100808354040283529160200191610dd4565b820191906000526020600020905b815481529060010190602001808311610db757829003601f168201915b5050505050905083565b6060600360008473ffffffffffffffffffffffffffffffffffffffff1673ffffffffffffffffffffffffffffffffffffffff1681526020019081526020016000206003018281548110610e3457610e33612a25565b5b9060005260206000209060020201600101805480602002602001604051908101604052809291908181526020016000905b82821015610f11578382906000526020600020018054610e84906126da565b80601f0160208091040260200160405190810160405280929190818152602001828054610eb0906126da565b8015610efd5780601f10610ed257610100808354040283529160200191610efd565b820191906000526020600020905b815481529060010190602001808311610ee057829003601f168201915b505050505081526020019060010190610e65565b50505050905092915050565b600080600090505b60008054905081101561100457610fe260008281548110610f4957610f48612a25565b5b906000526020600020018054610f5e906126da565b80601f0160208091040260200160405190810160405280929190818152602001828054610f8a906126da565b8015610fd75780601f10610fac57610100808354040283529160200191610fd7565b820191906000526020600020905b815481529060010190602001808311610fba57829003601f168201915b505050505084611893565b15610ff157600191505061100a565b8080610ffc90612a83565b915050610f25565b50600090505b919050565b60026020528060005260406000206000915090508060000160009054906101000a900473ffffffffffffffffffffffffffffffffffffffff1690806001018054611058906126da565b80601f0160208091040260200160405190810160405280929190818152602001828054611084906126da565b80156110d15780601f106110a6576101008083540402835291602001916110d1565b820191906000526020600020905b8154815290600101906020018083116110b457829003601f168201915b5050505050908060020180546110e6906126da565b80601f0160208091040260200160405190810160405280929190818152602001828054611112906126da565b801561115f5780601f106111345761010080835404028352916020019161115f565b820191906000526020600020905b81548152906001019060200180831161114257829003601f168201915b5050505050905083565b6060600360008373ffffffffffffffffffffffffffffffffffffffff1673ffffffffffffffffffffffffffffffffffffffff168152602001908152602001600020600301805480602002602001604051908101604052809291908181526020016000905b8282101561136a5783829060005260206000209060020201604051806040016040529081600082018054611200906126da565b80601f016020809104026020016040519081016040528092919081815260200182805461122c906126da565b80156112795780601f1061124e57610100808354040283529160200191611279565b820191906000526020600020905b81548152906001019060200180831161125c57829003601f168201915b5050505050815260200160018201805480602002602001604051908101604052809291908181526020016000905b828210156113535783829060005260206000200180546112c6906126da565b80601f01602080910402602001604051908101604052809291908181526020018280546112f2906126da565b801561133f5780601f106113145761010080835404028352916020019161133f565b820191906000526020600020905b81548152906001019060200180831161132257829003601f168201915b5050505050815260200190600101906112a7565b5050505081525050815260200190600101906111cd565b505050509050919050565b8273ffffffffffffffffffffffffffffffffffffffff16600260008573ffffffffffffffffffffffffffffffffffffffff1673ffffffffffffffffffffffffffffffffffffffff16815260200190815260200160002060000160009054906101000a900473ffffffffffffffffffffffffffffffffffffffff1673ffffffffffffffffffffffffffffffffffffffff1603611445576040517f08c379a000000000000000000000000000000000000000000000000000000000815260040161143c90612a05565b60405180910390fd5b82600260008573ffffffffffffffffffffffffffffffffffffffff1673ffffffffffffffffffffffffffffffffffffffff16815260200190815260200160002060000160006101000a81548173ffffffffffffffffffffffffffffffffffffffff021916908373ffffffffffffffffffffffffffffffffffffffff16021790555081600260008573ffffffffffffffffffffffffffffffffffffffff1673ffffffffffffffffffffffffffffffffffffffff168152602001908152602001600020600101908161151591906128b7565b5080600260008573ffffffffffffffffffffffffffffffffffffffff1673ffffffffffffffffffffffffffffffffffffffff168152602001908152602001600020600201908161156591906128b7565b507f8eab1db142a914aff8b515eedb9177bd7effaef6d714c41e30bdf15206778607838383604051611599939291906122dc565b60405180910390a1505050565b80600360008573ffffffffffffffffffffffffffffffffffffffff1673ffffffffffffffffffffffffffffffffffffffff16815260200190815260200160002060030183815481106115fb576115fa612a25565b5b9060005260206000209060020201600101908051906020019061161f929190611977565b507fa4e21399a9cf01bdf29bdf026d33bf802d442f9f6b41517920259145884e254c8160405161164f9190612423565b60405180910390a1505050565b60008173ffffffffffffffffffffffffffffffffffffffff16600360008473ffffffffffffffffffffffffffffffffffffffff1673ffffffffffffffffffffffffffffffffffffffff16815260200190815260200160002060000160009054906101000a900473ffffffffffffffffffffffffffffffffffffffff1673ffffffffffffffffffffffffffffffffffffffff16149050919050565b60606001805480602002602001604051908101604052809291908181526020016000905b8282101561188a578382906000526020600020906003020160405180606001604052908160008201805461174d906126da565b80601f0160208091040260200160405190810160405280929190818152602001828054611779906126da565b80156117c65780601f1061179b576101008083540402835291602001916117c6565b820191906000526020600020905b8154815290600101906020018083116117a957829003601f168201915b505050505081526020016001820160009054906101000a900473ffffffffffffffffffffffffffffffffffffffff1673ffffffffffffffffffffffffffffffffffffffff1673ffffffffffffffffffffffffffffffffffffffff1681526020016002820160009054906101000a900473ffffffffffffffffffffffffffffffffffffffff1673ffffffffffffffffffffffffffffffffffffffff1673ffffffffffffffffffffffffffffffffffffffff16815250508152602001906001019061171a565b50505050905090565b6000808390506000839050600082519050815181146118b85760009350505050611971565b60005b81811015611968578281815181106118d6576118d5612a25565b5b602001015160f81c60f81b7effffffffffffffffffffffffffffffffffffffffffffffffffffffffffffff191684828151811061191657611915612a25565b5b602001015160f81c60f81b7effffffffffffffffffffffffffffffffffffffffffffffffffffffffffffff191614611955576000945050505050611971565b808061196090612a83565b9150506118bb565b50600193505050505b92915050565b8280548282559060005260206000209081019282156119bf579160200282015b828111156119be5782518290816119ae91906128b7565b5091602001919060010190611997565b5b5090506119cc91906119d0565b5090565b5b808211156119f057600081816119e791906119f4565b506001016119d1565b5090565b508054611a00906126da565b6000825580601f10611a125750611a31565b601f016020900490600052602060002090810190611a309190611a34565b5b50565b5b80821115611a4d576000816000905550600101611a35565b5090565b6000604051905090565b600080fd5b600080fd5b600073ffffffffffffffffffffffffffffffffffffffff82169050919050565b6000611a9082611a65565b9050919050565b611aa081611a85565b8114611aab57600080fd5b50565b600081359050611abd81611a97565b92915050565b600080fd5b600080fd5b6000601f19601f8301169050919050565b7f4e487b7100000000000000000000000000000000000000000000000000000000600052604160045260246000fd5b611b1682611acd565b810181811067ffffffffffffffff82111715611b3557611b34611ade565b5b80604052505050565b6000611b48611a51565b9050611b548282611b0d565b919050565b600067ffffffffffffffff821115611b7457611b73611ade565b5b611b7d82611acd565b9050602081019050919050565b82818337600083830152505050565b6000611bac611ba784611b59565b611b3e565b905082815260208101848484011115611bc857611bc7611ac8565b5b611bd3848285611b8a565b509392505050565b600082601f830112611bf057611bef611ac3565b5b8135611c00848260208601611b99565b91505092915050565b600067ffffffffffffffff821115611c2457611c23611ade565b5b602082029050602081019050919050565b600080fd5b6000611c4d611c4884611c09565b611b3e565b90508083825260208201905060208402830185811115611c7057611c6f611c35565b5b835b81811015611cb757803567ffffffffffffffff811115611c9557611c94611ac3565b5b808601611ca28982611bdb565b85526020850194505050602081019050611c72565b5050509392505050565b600082601f830112611cd657611cd5611ac3565b5b8135611ce6848260208601611c3a565b91505092915050565b600080600060608486031215611d0857611d07611a5b565b5b6000611d1686828701611aae565b935050602084013567ffffffffffffffff811115611d3757611d36611a60565b5b611d4386828701611bdb565b925050604084013567ffffffffffffffff811115611d6457611d63611a60565b5b611d7086828701611cc1565b9150509250925092565b600060208284031215611d9057611d8f611a5b565b5b6000611d9e84828501611aae565b91505092915050565b60008115159050919050565b611dbc81611da7565b82525050565b6000602082019050611dd76000830184611db3565b92915050565b600081519050919050565b600082825260208201905092915050565b6000819050602082019050919050565b600081519050919050565b600082825260208201905092915050565b60005b83811015611e43578082015181840152602081019050611e28565b60008484015250505050565b6000611e5a82611e09565b611e648185611e14565b9350611e74818560208601611e25565b611e7d81611acd565b840191505092915050565b611e9181611a85565b82525050565b60006060830160008301518482036000860152611eb48282611e4f565b9150506020830151611ec96020860182611e88565b506040830151611edc6040860182611e88565b508091505092915050565b6000611ef38383611e97565b905092915050565b6000602082019050919050565b6000611f1382611ddd565b611f1d8185611de8565b935083602082028501611f2f85611df9565b8060005b85811015611f6b5784840389528151611f4c8582611ee7565b9450611f5783611efb565b925060208a01995050600181019050611f33565b50829750879550505050505092915050565b60006020820190508181036000830152611f978184611f08565b905092915050565b600080600060608486031215611fb857611fb7611a5b565b5b6000611fc686828701611aae565b935050602084013567ffffffffffffffff811115611fe757611fe6611a60565b5b611ff386828701611bdb565b925050604084013567ffffffffffffffff81111561201457612013611a60565b5b61202086828701611bdb565b9150509250925092565b600067ffffffffffffffff82111561204557612044611ade565b5b602082029050602081019050919050565b600080fd5b600080fd5b60006060828403121561207657612075612056565b5b6120806060611b3e565b9050600082013567ffffffffffffffff8111156120a05761209f61205b565b5b6120ac84828501611bdb565b60008301525060206120c084828501611aae565b60208301525060406120d484828501611aae565b60408301525092915050565b60006120f36120ee8461202a565b611b3e565b9050808382526020820190506020840283018581111561211657612115611c35565b5b835b8181101561215d57803567ffffffffffffffff81111561213b5761213a611ac3565b5b8086016121488982612060565b85526020850194505050602081019050612118565b5050509392505050565b600082601f83011261217c5761217b611ac3565b5b813561218c8482602086016120e0565b91505092915050565b6000602082840312156121ab576121aa611a5b565b5b600082013567ffffffffffffffff8111156121c9576121c8611a60565b5b6121d584828501612167565b91505092915050565b6000819050919050565b6121f1816121de565b81146121fc57600080fd5b50565b60008135905061220e816121e8565b92915050565b60008060006060848603121561222d5761222c611a5b565b5b600061223b86828701611aae565b935050602084013567ffffffffffffffff81111561225c5761225b611a60565b5b61226886828701611bdb565b9250506040612279868287016121ff565b9150509250925092565b61228c81611a85565b82525050565b600082825260208201905092915050565b60006122ae82611e09565b6122b88185612292565b93506122c8818560208601611e25565b6122d181611acd565b840191505092915050565b60006060820190506122f16000830186612283565b818103602083015261230381856122a3565b9050818103604083015261231781846122a3565b9050949350505050565b6000806040838503121561233857612337611a5b565b5b600061234685828601611aae565b9250506020612357858286016121ff565b9150509250929050565b600081519050919050565b600082825260208201905092915050565b6000819050602082019050919050565b60006123998383611e4f565b905092915050565b6000602082019050919050565b60006123b982612361565b6123c3818561236c565b9350836020820285016123d58561237d565b8060005b8581101561241157848403895281516123f2858261238d565b94506123fd836123a1565b925060208a019950506001810190506123d9565b50829750879550505050505092915050565b6000602082019050818103600083015261243d81846123ae565b905092915050565b60006020828403121561245b5761245a611a5b565b5b600082013567ffffffffffffffff81111561247957612478611a60565b5b61248584828501611bdb565b91505092915050565b600081519050919050565b600082825260208201905092915050565b6000819050602082019050919050565b600082825260208201905092915050565b60006124d682612361565b6124e081856124ba565b9350836020820285016124f28561237d565b8060005b8581101561252e578484038952815161250f858261238d565b945061251a836123a1565b925060208a019950506001810190506124f6565b50829750879550505050505092915050565b6000604083016000830151848203600086015261255d8282611e4f565b9150506020830151848203602086015261257782826124cb565b9150508091505092915050565b60006125908383612540565b905092915050565b6000602082019050919050565b60006125b08261248e565b6125ba8185612499565b9350836020820285016125cc856124aa565b8060005b8581101561260857848403895281516125e98582612584565b94506125f483612598565b925060208a019950506001810190506125d0565b50829750879550505050505092915050565b6000602082019050818103600083015261263481846125a5565b905092915050565b60008060006060848603121561265557612654611a5b565b5b600061266386828701611aae565b9350506020612674868287016121ff565b925050604084013567ffffffffffffffff81111561269557612694611a60565b5b6126a186828701611cc1565b9150509250925092565b7f4e487b7100000000000000000000000000000000000000000000000000000000600052602260045260246000fd5b600060028204905060018216806126f257607f821691505b602082108103612705576127046126ab565b5b50919050565b60008190508160005260206000209050919050565b60006020601f8301049050919050565b600082821b905092915050565b60006008830261276d7fffffffffffffffffffffffffffffffffffffffffffffffffffffffffffffffff82612730565b6127778683612730565b95508019841693508086168417925050509392505050565b6000819050919050565b60006127b46127af6127aa846121de565b61278f565b6121de565b9050919050565b6000819050919050565b6127ce83612799565b6127e26127da826127bb565b84845461273d565b825550505050565b600090565b6127f76127ea565b6128028184846127c5565b505050565b5b818110156128265761281b6000826127ef565b600181019050612808565b5050565b601f82111561286b5761283c8161270b565b61284584612720565b81016020851015612854578190505b61286861286085612720565b830182612807565b50505b505050565b600082821c905092915050565b600061288e60001984600802612870565b1980831691505092915050565b60006128a7838361287d565b9150826002028217905092915050565b6128c082611e09565b67ffffffffffffffff8111156128d9576128d8611ade565b5b6128e382546126da565b6128ee82828561282a565b600060209050601f831160018114612921576000841561290f578287015190505b612919858261289b565b865550612981565b601f19841661292f8661270b565b60005b8281101561295757848901518255600182019150602085019450602081019050612932565b868310156129745784890151612970601f89168261287d565b8355505b6001600288020188555050505b505050505050565b600060408201905061299e6000830185612283565b81810360208301526129b081846122a3565b90509392505050565b7f54686973207573657220616c7265616479206578697374732e00000000000000600082015250565b60006129ef601983612292565b91506129fa826129b9565b602082019050919050565b60006020820190508181036000830152612a1e816129e2565b9050919050565b7f4e487b7100000000000000000000000000000000000000000000000000000000600052603260045260246000fd5b7f4e487b7100000000000000000000000000000000000000000000000000000000600052601160045260246000fd5b6000612a8e826121de565b91507fffffffffffffffffffffffffffffffffffffffffffffffffffffffffffffffff8203612ac057612abf612a54565b5b60018201905091905056fea26469706673582212204058592ddc6d50aa1aac738b904c9f353ce25b6cac226f9131667bd93e60e54964736f6c63430008110033",
  "linkReferences": {},
  "deployedLinkReferences": {}
}