{
  "_format": "hh-sol-artifact-1",
  "contractName": "Nareswara",
  "sourceName": "contracts/Nareswara.sol",
  "abi": [
    {
      "anonymous": false,
      "inputs": [
        {
          "indexed": false,
          "internalType": "address",
          "name": "id",
          "type": "address"
        },
        {
          "indexed": false,
          "internalType": "string",
          "name": "eventName",
          "type": "string"
        }
      ],
      "name": "EventAdded",
      "type": "event"
    },
    {
      "anonymous": false,
      "inputs": [
        {
          "indexed": false,
          "internalType": "address",
          "name": "id",
          "type": "address"
        },
        {
          "indexed": false,
          "internalType": "string",
          "name": "name",
          "type": "string"
        },
        {
          "indexed": false,
          "internalType": "string",
          "name": "email",
          "type": "string"
        }
      ],
      "name": "OrganizationAdded",
      "type": "event"
    },
    {
      "anonymous": false,
      "inputs": [
        {
          "indexed": false,
          "internalType": "string[]",
          "name": "participants",
          "type": "string[]"
        }
      ],
      "name": "ParticipantAdded",
      "type": "event"
    },
    {
      "anonymous": false,
      "inputs": [
        {
          "indexed": false,
          "internalType": "address",
          "name": "userAddress",
          "type": "address"
        },
        {
          "indexed": false,
          "internalType": "string",
          "name": "name",
          "type": "string"
        },
        {
          "indexed": false,
          "internalType": "string",
          "name": "email",
          "type": "string"
        }
      ],
      "name": "UserAdded",
      "type": "event"
    },
    {
      "inputs": [
        {
          "internalType": "address",
          "name": "_organizationAddress",
          "type": "address"
        },
        {
          "internalType": "string",
          "name": "_eventName",
          "type": "string"
        }
      ],
      "name": "addEvent",
      "outputs": [],
      "stateMutability": "nonpayable",
      "type": "function"
    },
    {
      "inputs": [
        {
          "internalType": "address",
          "name": "_organizationAddress",
          "type": "address"
        },
        {
          "internalType": "string",
          "name": "_name",
          "type": "string"
        },
        {
          "internalType": "string",
          "name": "_email",
          "type": "string"
        }
      ],
      "name": "addOrganization",
      "outputs": [],
      "stateMutability": "nonpayable",
      "type": "function"
    },
    {
      "inputs": [
        {
          "internalType": "address",
          "name": "_organizationAddress",
          "type": "address"
        },
        {
          "internalType": "uint256",
          "name": "_index",
          "type": "uint256"
        },
        {
          "internalType": "string[]",
          "name": "_participants",
          "type": "string[]"
        }
      ],
      "name": "addParticipant",
      "outputs": [],
      "stateMutability": "nonpayable",
      "type": "function"
    },
    {
      "inputs": [
        {
          "internalType": "address",
          "name": "_userAddress",
          "type": "address"
        },
        {
          "internalType": "string",
          "name": "_name",
          "type": "string"
        },
        {
          "internalType": "string",
          "name": "_email",
          "type": "string"
        }
      ],
      "name": "addUser",
      "outputs": [],
      "stateMutability": "nonpayable",
      "type": "function"
    },
    {
      "inputs": [
        {
          "internalType": "address",
          "name": "_userAddress",
          "type": "address"
        }
      ],
      "name": "getAllCertificate",
      "outputs": [
        {
          "components": [
            {
              "internalType": "string",
              "name": "cid",
              "type": "string"
            },
            {
              "internalType": "address",
              "name": "userAddress",
              "type": "address"
            },
            {
              "internalType": "address",
              "name": "issuerAddress",
              "type": "address"
            }
          ],
          "internalType": "struct Nareswara.Certificate[]",
          "name": "",
          "type": "tuple[]"
        }
      ],
      "stateMutability": "view",
      "type": "function"
    },
    {
      "inputs": [
        {
          "internalType": "address",
          "name": "_organizationAddress",
          "type": "address"
        }
      ],
      "name": "getAllEvent",
      "outputs": [
        {
          "components": [
            {
              "internalType": "string",
              "name": "name",
              "type": "string"
            },
            {
              "internalType": "string[]",
              "name": "participants",
              "type": "string[]"
            }
          ],
          "internalType": "struct Nareswara.Event[]",
          "name": "",
          "type": "tuple[]"
        }
      ],
      "stateMutability": "view",
      "type": "function"
    },
    {
      "inputs": [
        {
          "internalType": "address",
          "name": "_organizationAddress",
          "type": "address"
        },
        {
          "internalType": "uint256",
          "name": "_index",
          "type": "uint256"
        }
      ],
      "name": "getAllParticipant",
      "outputs": [
        {
          "internalType": "string[]",
          "name": "",
          "type": "string[]"
        }
      ],
      "stateMutability": "view",
      "type": "function"
    },
    {
      "inputs": [
        {
          "internalType": "address",
          "name": "_organizationAddress",
          "type": "address"
        }
      ],
      "name": "getOrganizationExists",
      "outputs": [
        {
          "internalType": "bool",
          "name": "",
          "type": "bool"
        }
      ],
      "stateMutability": "view",
      "type": "function"
    },
    {
      "inputs": [
        {
          "internalType": "address",
          "name": "_userAddress",
          "type": "address"
        }
      ],
      "name": "getUserExists",
      "outputs": [
        {
          "internalType": "bool",
          "name": "",
          "type": "bool"
        }
      ],
      "stateMutability": "view",
      "type": "function"
    },
    {
      "inputs": [
        {
          "internalType": "address",
          "name": "_organizationAddress",
          "type": "address"
        },
        {
          "internalType": "string",
          "name": "_email",
          "type": "string"
        },
        {
          "internalType": "uint256",
          "name": "_index",
          "type": "uint256"
        }
      ],
      "name": "isParticipantReady",
      "outputs": [
        {
          "internalType": "bool",
          "name": "",
          "type": "bool"
        }
      ],
      "stateMutability": "view",
      "type": "function"
    },
    {
      "inputs": [
        {
          "internalType": "address",
          "name": "",
          "type": "address"
        }
      ],
      "name": "organizations",
      "outputs": [
        {
          "internalType": "address",
          "name": "id",
          "type": "address"
        },
        {
          "internalType": "string",
          "name": "name",
          "type": "string"
        },
        {
          "internalType": "string",
          "name": "email",
          "type": "string"
        }
      ],
      "stateMutability": "view",
      "type": "function"
    },
    {
      "inputs": [
        {
          "internalType": "string",
          "name": "_email",
          "type": "string"
        },
        {
          "internalType": "uint256",
          "name": "_index",
          "type": "uint256"
        },
        {
          "internalType": "address",
          "name": "_userAddress",
          "type": "address"
        },
        {
          "internalType": "address",
          "name": "_organizationAddress",
          "type": "address"
        },
        {
          "internalType": "string",
          "name": "_cid",
          "type": "string"
        }
      ],
      "name": "redeemCertificate",
      "outputs": [],
      "stateMutability": "nonpayable",
      "type": "function"
    },
    {
      "inputs": [
        {
          "internalType": "address",
          "name": "",
          "type": "address"
        }
      ],
      "name": "users",
      "outputs": [
        {
          "internalType": "address",
          "name": "id",
          "type": "address"
        },
        {
          "internalType": "string",
          "name": "name",
          "type": "string"
        },
        {
          "internalType": "string",
          "name": "email",
          "type": "string"
        }
      ],
      "stateMutability": "view",
      "type": "function"
    }
  ],
  "bytecode": "0x608060405234801561001057600080fd5b50612653806100206000396000f3fe608060405234801561001057600080fd5b50600436106100cf5760003560e01c8063a45d51ea1161008c578063d7554a6811610066578063d7554a6814610260578063df1047701461027c578063e6995a6614610298578063f15aab61146102c8576100cf565b8063a45d51ea146101e2578063a87430ba146101fe578063d256f3d814610230576100cf565b80630931d3af146100d4578063295e80dc146101045780633d47a354146101345780634a74c325146101505780635a1f740614610180578063842f9944146101b2575b600080fd5b6100ee60048036038101906100e9919061178e565b6102e4565b6040516100fb91906117d6565b60405180910390f35b61011e6004803603810190610119919061178e565b61037d565b60405161012b91906119a2565b60405180910390f35b61014e60048036038101906101499190611af9565b61055b565b005b61016a60048036038101906101659190611bba565b61078c565b60405161017791906117d6565b60405180910390f35b61019a6004803603810190610195919061178e565b610927565b6040516101a993929190611c82565b60405180910390f35b6101cc60048036038101906101c79190611cc7565b610a81565b6040516101d99190611dc9565b60405180910390f35b6101fc60048036038101906101f79190611deb565b610bc0565b005b6102186004803603810190610213919061178e565b610d35565b60405161022793929190611c82565b60405180910390f35b61024a6004803603810190610245919061178e565b610e8f565b604051610257919061202a565b60405180910390f35b61027a60048036038101906102759190611af9565b61109b565b005b61029660048036038101906102919190612132565b6112c8565b005b6102b260048036038101906102ad919061178e565b61137e565b6040516102bf91906117d6565b60405180910390f35b6102e260048036038101906102dd91906121a1565b611418565b005b60008173ffffffffffffffffffffffffffffffffffffffff166000808473ffffffffffffffffffffffffffffffffffffffff1673ffffffffffffffffffffffffffffffffffffffff16815260200190815260200160002060000160009054906101000a900473ffffffffffffffffffffffffffffffffffffffff1673ffffffffffffffffffffffffffffffffffffffff16149050919050565b60606000808373ffffffffffffffffffffffffffffffffffffffff1673ffffffffffffffffffffffffffffffffffffffff168152602001908152602001600020600301805480602002602001604051908101604052809291908181526020016000905b8282101561055057838290600052602060002090600302016040518060600160405290816000820180546104139061222c565b80601f016020809104026020016040519081016040528092919081815260200182805461043f9061222c565b801561048c5780601f106104615761010080835404028352916020019161048c565b820191906000526020600020905b81548152906001019060200180831161046f57829003601f168201915b505050505081526020016001820160009054906101000a900473ffffffffffffffffffffffffffffffffffffffff1673ffffffffffffffffffffffffffffffffffffffff1673ffffffffffffffffffffffffffffffffffffffff1681526020016002820160009054906101000a900473ffffffffffffffffffffffffffffffffffffffff1673ffffffffffffffffffffffffffffffffffffffff1673ffffffffffffffffffffffffffffffffffffffff1681525050815260200190600101906103e0565b505050509050919050565b8273ffffffffffffffffffffffffffffffffffffffff16600160008573ffffffffffffffffffffffffffffffffffffffff1673ffffffffffffffffffffffffffffffffffffffff16815260200190815260200160002060000160009054906101000a900473ffffffffffffffffffffffffffffffffffffffff1673ffffffffffffffffffffffffffffffffffffffff160361062b576040517f08c379a0000000000000000000000000000000000000000000000000000000008152600401610622906122a9565b60405180910390fd5b82600160008573ffffffffffffffffffffffffffffffffffffffff1673ffffffffffffffffffffffffffffffffffffffff16815260200190815260200160002060000160006101000a81548173ffffffffffffffffffffffffffffffffffffffff021916908373ffffffffffffffffffffffffffffffffffffffff16021790555081600160008573ffffffffffffffffffffffffffffffffffffffff1673ffffffffffffffffffffffffffffffffffffffff16815260200190815260200160002060010190816106fb9190612475565b5080600160008573ffffffffffffffffffffffffffffffffffffffff1673ffffffffffffffffffffffffffffffffffffffff168152602001908152602001600020600201908161074b9190612475565b507ff099cf61e87eac71ecd300f54fdbc2f72ede778301f0103622a552a575e0d0c283838360405161077f93929190611c82565b60405180910390a1505050565b600080600160008673ffffffffffffffffffffffffffffffffffffffff1673ffffffffffffffffffffffffffffffffffffffff16815260200190815260200160002060030183815481106107e3576107e2612547565b5b9060005260206000209060020201600101805480602002602001604051908101604052809291908181526020016000905b828210156108c05783829060005260206000200180546108339061222c565b80601f016020809104026020016040519081016040528092919081815260200182805461085f9061222c565b80156108ac5780601f10610881576101008083540402835291602001916108ac565b820191906000526020600020905b81548152906001019060200180831161088f57829003601f168201915b505050505081526020019060010190610814565b50505050905060005b8151811015610919576108f68282815181106108e8576108e7612547565b5b60200260200101518661155e565b1561090657600192505050610920565b8080610911906125a5565b9150506108c9565b5060009150505b9392505050565b60016020528060005260406000206000915090508060000160009054906101000a900473ffffffffffffffffffffffffffffffffffffffff16908060010180546109709061222c565b80601f016020809104026020016040519081016040528092919081815260200182805461099c9061222c565b80156109e95780601f106109be576101008083540402835291602001916109e9565b820191906000526020600020905b8154815290600101906020018083116109cc57829003601f168201915b5050505050908060020180546109fe9061222c565b80601f0160208091040260200160405190810160405280929190818152602001828054610a2a9061222c565b8015610a775780601f10610a4c57610100808354040283529160200191610a77565b820191906000526020600020905b815481529060010190602001808311610a5a57829003601f168201915b5050505050905083565b6060600160008473ffffffffffffffffffffffffffffffffffffffff1673ffffffffffffffffffffffffffffffffffffffff1681526020019081526020016000206003018281548110610ad757610ad6612547565b5b9060005260206000209060020201600101805480602002602001604051908101604052809291908181526020016000905b82821015610bb4578382906000526020600020018054610b279061222c565b80601f0160208091040260200160405190810160405280929190818152602001828054610b539061222c565b8015610ba05780601f10610b7557610100808354040283529160200191610ba0565b820191906000526020600020905b815481529060010190602001808311610b8357829003601f168201915b505050505081526020019060010190610b08565b50505050905092915050565b610bcb82868661078c565b15610d2e57600060405180606001604052808381526020018573ffffffffffffffffffffffffffffffffffffffff1681526020018473ffffffffffffffffffffffffffffffffffffffff1681525090506000808573ffffffffffffffffffffffffffffffffffffffff1673ffffffffffffffffffffffffffffffffffffffff1681526020019081526020016000206003018190806001815401808255809150506001900390600052602060002090600302016000909190919091506000820151816000019081610c9b9190612475565b5060208201518160010160006101000a81548173ffffffffffffffffffffffffffffffffffffffff021916908373ffffffffffffffffffffffffffffffffffffffff16021790555060408201518160020160006101000a81548173ffffffffffffffffffffffffffffffffffffffff021916908373ffffffffffffffffffffffffffffffffffffffff1602179055505050505b5050505050565b60006020528060005260406000206000915090508060000160009054906101000a900473ffffffffffffffffffffffffffffffffffffffff1690806001018054610d7e9061222c565b80601f0160208091040260200160405190810160405280929190818152602001828054610daa9061222c565b8015610df75780601f10610dcc57610100808354040283529160200191610df7565b820191906000526020600020905b815481529060010190602001808311610dda57829003601f168201915b505050505090806002018054610e0c9061222c565b80601f0160208091040260200160405190810160405280929190818152602001828054610e389061222c565b8015610e855780601f10610e5a57610100808354040283529160200191610e85565b820191906000526020600020905b815481529060010190602001808311610e6857829003601f168201915b5050505050905083565b6060600160008373ffffffffffffffffffffffffffffffffffffffff1673ffffffffffffffffffffffffffffffffffffffff168152602001908152602001600020600301805480602002602001604051908101604052809291908181526020016000905b828210156110905783829060005260206000209060020201604051806040016040529081600082018054610f269061222c565b80601f0160208091040260200160405190810160405280929190818152602001828054610f529061222c565b8015610f9f5780601f10610f7457610100808354040283529160200191610f9f565b820191906000526020600020905b815481529060010190602001808311610f8257829003601f168201915b5050505050815260200160018201805480602002602001604051908101604052809291908181526020016000905b82821015611079578382906000526020600020018054610fec9061222c565b80601f01602080910402602001604051908101604052809291908181526020018280546110189061222c565b80156110655780601f1061103a57610100808354040283529160200191611065565b820191906000526020600020905b81548152906001019060200180831161104857829003601f168201915b505050505081526020019060010190610fcd565b505050508152505081526020019060010190610ef3565b505050509050919050565b8273ffffffffffffffffffffffffffffffffffffffff166000808573ffffffffffffffffffffffffffffffffffffffff1673ffffffffffffffffffffffffffffffffffffffff16815260200190815260200160002060000160009054906101000a900473ffffffffffffffffffffffffffffffffffffffff1673ffffffffffffffffffffffffffffffffffffffff160361116a576040517f08c379a0000000000000000000000000000000000000000000000000000000008152600401611161906122a9565b60405180910390fd5b826000808573ffffffffffffffffffffffffffffffffffffffff1673ffffffffffffffffffffffffffffffffffffffff16815260200190815260200160002060000160006101000a81548173ffffffffffffffffffffffffffffffffffffffff021916908373ffffffffffffffffffffffffffffffffffffffff160217905550816000808573ffffffffffffffffffffffffffffffffffffffff1673ffffffffffffffffffffffffffffffffffffffff16815260200190815260200160002060010190816112389190612475565b50806000808573ffffffffffffffffffffffffffffffffffffffff1673ffffffffffffffffffffffffffffffffffffffff16815260200190815260200160002060020190816112879190612475565b507f8eab1db142a914aff8b515eedb9177bd7effaef6d714c41e30bdf152067786078383836040516112bb93929190611c82565b60405180910390a1505050565b80600160008573ffffffffffffffffffffffffffffffffffffffff1673ffffffffffffffffffffffffffffffffffffffff168152602001908152602001600020600301838154811061131d5761131c612547565b5b90600052602060002090600202016001019080519060200190611341929190611642565b507fa4e21399a9cf01bdf29bdf026d33bf802d442f9f6b41517920259145884e254c816040516113719190611dc9565b60405180910390a1505050565b60008173ffffffffffffffffffffffffffffffffffffffff16600160008473ffffffffffffffffffffffffffffffffffffffff1673ffffffffffffffffffffffffffffffffffffffff16815260200190815260200160002060000160009054906101000a900473ffffffffffffffffffffffffffffffffffffffff1673ffffffffffffffffffffffffffffffffffffffff16149050919050565b60006040518060400160405280838152602001600067ffffffffffffffff811115611446576114456119ce565b5b60405190808252806020026020018201604052801561147957816020015b60608152602001906001900390816114645790505b508152509050600160008473ffffffffffffffffffffffffffffffffffffffff1673ffffffffffffffffffffffffffffffffffffffff16815260200190815260200160002060030181908060018154018082558091505060019003906000526020600020906002020160009091909190915060008201518160000190816115009190612475565b50602082015181600101908051906020019061151d929190611642565b5050507f153594e72b817d485e2869681e89c7d4380a6c15a2024abbeefdc6e75995102f83836040516115519291906125ed565b60405180910390a1505050565b600080839050600083905060008251905081518114611583576000935050505061163c565b60005b81811015611633578281815181106115a1576115a0612547565b5b602001015160f81c60f81b7effffffffffffffffffffffffffffffffffffffffffffffffffffffffffffff19168482815181106115e1576115e0612547565b5b602001015160f81c60f81b7effffffffffffffffffffffffffffffffffffffffffffffffffffffffffffff19161461162057600094505050505061163c565b808061162b906125a5565b915050611586565b50600193505050505b92915050565b82805482825590600052602060002090810192821561168a579160200282015b828111156116895782518290816116799190612475565b5091602001919060010190611662565b5b509050611697919061169b565b5090565b5b808211156116bb57600081816116b291906116bf565b5060010161169c565b5090565b5080546116cb9061222c565b6000825580601f106116dd57506116fc565b601f0160209004906000526020600020908101906116fb91906116ff565b5b50565b5b80821115611718576000816000905550600101611700565b5090565b6000604051905090565b600080fd5b600080fd5b600073ffffffffffffffffffffffffffffffffffffffff82169050919050565b600061175b82611730565b9050919050565b61176b81611750565b811461177657600080fd5b50565b60008135905061178881611762565b92915050565b6000602082840312156117a4576117a3611726565b5b60006117b284828501611779565b91505092915050565b60008115159050919050565b6117d0816117bb565b82525050565b60006020820190506117eb60008301846117c7565b92915050565b600081519050919050565b600082825260208201905092915050565b6000819050602082019050919050565b600081519050919050565b600082825260208201905092915050565b60005b8381101561185757808201518184015260208101905061183c565b60008484015250505050565b6000601f19601f8301169050919050565b600061187f8261181d565b6118898185611828565b9350611899818560208601611839565b6118a281611863565b840191505092915050565b6118b681611750565b82525050565b600060608301600083015184820360008601526118d98282611874565b91505060208301516118ee60208601826118ad565b50604083015161190160408601826118ad565b508091505092915050565b600061191883836118bc565b905092915050565b6000602082019050919050565b6000611938826117f1565b61194281856117fc565b9350836020820285016119548561180d565b8060005b858110156119905784840389528151611971858261190c565b945061197c83611920565b925060208a01995050600181019050611958565b50829750879550505050505092915050565b600060208201905081810360008301526119bc818461192d565b905092915050565b600080fd5b600080fd5b7f4e487b7100000000000000000000000000000000000000000000000000000000600052604160045260246000fd5b611a0682611863565b810181811067ffffffffffffffff82111715611a2557611a246119ce565b5b80604052505050565b6000611a3861171c565b9050611a4482826119fd565b919050565b600067ffffffffffffffff821115611a6457611a636119ce565b5b611a6d82611863565b9050602081019050919050565b82818337600083830152505050565b6000611a9c611a9784611a49565b611a2e565b905082815260208101848484011115611ab857611ab76119c9565b5b611ac3848285611a7a565b509392505050565b600082601f830112611ae057611adf6119c4565b5b8135611af0848260208601611a89565b91505092915050565b600080600060608486031215611b1257611b11611726565b5b6000611b2086828701611779565b935050602084013567ffffffffffffffff811115611b4157611b4061172b565b5b611b4d86828701611acb565b925050604084013567ffffffffffffffff811115611b6e57611b6d61172b565b5b611b7a86828701611acb565b9150509250925092565b6000819050919050565b611b9781611b84565b8114611ba257600080fd5b50565b600081359050611bb481611b8e565b92915050565b600080600060608486031215611bd357611bd2611726565b5b6000611be186828701611779565b935050602084013567ffffffffffffffff811115611c0257611c0161172b565b5b611c0e86828701611acb565b9250506040611c1f86828701611ba5565b9150509250925092565b611c3281611750565b82525050565b600082825260208201905092915050565b6000611c548261181d565b611c5e8185611c38565b9350611c6e818560208601611839565b611c7781611863565b840191505092915050565b6000606082019050611c976000830186611c29565b8181036020830152611ca98185611c49565b90508181036040830152611cbd8184611c49565b9050949350505050565b60008060408385031215611cde57611cdd611726565b5b6000611cec85828601611779565b9250506020611cfd85828601611ba5565b9150509250929050565b600081519050919050565b600082825260208201905092915050565b6000819050602082019050919050565b6000611d3f8383611874565b905092915050565b6000602082019050919050565b6000611d5f82611d07565b611d698185611d12565b935083602082028501611d7b85611d23565b8060005b85811015611db75784840389528151611d988582611d33565b9450611da383611d47565b925060208a01995050600181019050611d7f565b50829750879550505050505092915050565b60006020820190508181036000830152611de38184611d54565b905092915050565b600080600080600060a08688031215611e0757611e06611726565b5b600086013567ffffffffffffffff811115611e2557611e2461172b565b5b611e3188828901611acb565b9550506020611e4288828901611ba5565b9450506040611e5388828901611779565b9350506060611e6488828901611779565b925050608086013567ffffffffffffffff811115611e8557611e8461172b565b5b611e9188828901611acb565b9150509295509295909350565b600081519050919050565b600082825260208201905092915050565b6000819050602082019050919050565b600082825260208201905092915050565b6000611ee682611d07565b611ef08185611eca565b935083602082028501611f0285611d23565b8060005b85811015611f3e5784840389528151611f1f8582611d33565b9450611f2a83611d47565b925060208a01995050600181019050611f06565b50829750879550505050505092915050565b60006040830160008301518482036000860152611f6d8282611874565b91505060208301518482036020860152611f878282611edb565b9150508091505092915050565b6000611fa08383611f50565b905092915050565b6000602082019050919050565b6000611fc082611e9e565b611fca8185611ea9565b935083602082028501611fdc85611eba565b8060005b858110156120185784840389528151611ff98582611f94565b945061200483611fa8565b925060208a01995050600181019050611fe0565b50829750879550505050505092915050565b600060208201905081810360008301526120448184611fb5565b905092915050565b600067ffffffffffffffff821115612067576120666119ce565b5b602082029050602081019050919050565b600080fd5b600061209061208b8461204c565b611a2e565b905080838252602082019050602084028301858111156120b3576120b2612078565b5b835b818110156120fa57803567ffffffffffffffff8111156120d8576120d76119c4565b5b8086016120e58982611acb565b855260208501945050506020810190506120b5565b5050509392505050565b600082601f830112612119576121186119c4565b5b813561212984826020860161207d565b91505092915050565b60008060006060848603121561214b5761214a611726565b5b600061215986828701611779565b935050602061216a86828701611ba5565b925050604084013567ffffffffffffffff81111561218b5761218a61172b565b5b61219786828701612104565b9150509250925092565b600080604083850312156121b8576121b7611726565b5b60006121c685828601611779565b925050602083013567ffffffffffffffff8111156121e7576121e661172b565b5b6121f385828601611acb565b9150509250929050565b7f4e487b7100000000000000000000000000000000000000000000000000000000600052602260045260246000fd5b6000600282049050600182168061224457607f821691505b602082108103612257576122566121fd565b5b50919050565b7f54686973207573657220616c7265616479206578697374732e00000000000000600082015250565b6000612293601983611c38565b915061229e8261225d565b602082019050919050565b600060208201905081810360008301526122c281612286565b9050919050565b60008190508160005260206000209050919050565b60006020601f8301049050919050565b600082821b905092915050565b60006008830261232b7fffffffffffffffffffffffffffffffffffffffffffffffffffffffffffffffff826122ee565b61233586836122ee565b95508019841693508086168417925050509392505050565b6000819050919050565b600061237261236d61236884611b84565b61234d565b611b84565b9050919050565b6000819050919050565b61238c83612357565b6123a061239882612379565b8484546122fb565b825550505050565b600090565b6123b56123a8565b6123c0818484612383565b505050565b5b818110156123e4576123d96000826123ad565b6001810190506123c6565b5050565b601f821115612429576123fa816122c9565b612403846122de565b81016020851015612412578190505b61242661241e856122de565b8301826123c5565b50505b505050565b600082821c905092915050565b600061244c6000198460080261242e565b1980831691505092915050565b6000612465838361243b565b9150826002028217905092915050565b61247e8261181d565b67ffffffffffffffff811115612497576124966119ce565b5b6124a1825461222c565b6124ac8282856123e8565b600060209050601f8311600181146124df57600084156124cd578287015190505b6124d78582612459565b86555061253f565b601f1984166124ed866122c9565b60005b82811015612515578489015182556001820191506020850194506020810190506124f0565b86831015612532578489015161252e601f89168261243b565b8355505b6001600288020188555050505b505050505050565b7f4e487b7100000000000000000000000000000000000000000000000000000000600052603260045260246000fd5b7f4e487b7100000000000000000000000000000000000000000000000000000000600052601160045260246000fd5b60006125b082611b84565b91507fffffffffffffffffffffffffffffffffffffffffffffffffffffffffffffffff82036125e2576125e1612576565b5b600182019050919050565b60006040820190506126026000830185611c29565b81810360208301526126148184611c49565b9050939250505056fea2646970667358221220c0f59e5f05cb8e400b3c85b336803da94caca7100ee0d3fa49eb1e6fd9d2526564736f6c63430008110033",
  "linkReferences": {},
  "deployedLinkReferences": {}
}