{
  "_format": "hh-sol-artifact-1",
  "contractName": "Nareswara",
  "sourceName": "contracts/Nareswara.sol",
  "abi": [
    {
      "anonymous": false,
      "inputs": [
        {
          "indexed": false,
          "internalType": "address",
          "name": "id",
          "type": "address"
        },
        {
          "indexed": false,
          "internalType": "string",
          "name": "eventName",
          "type": "string"
        }
      ],
      "name": "EventAdded",
      "type": "event"
    },
    {
      "anonymous": false,
      "inputs": [
        {
          "indexed": false,
          "internalType": "address",
          "name": "id",
          "type": "address"
        },
        {
          "indexed": false,
          "internalType": "string",
          "name": "name",
          "type": "string"
        },
        {
          "indexed": false,
          "internalType": "string",
          "name": "email",
          "type": "string"
        }
      ],
      "name": "OrganizationAdded",
      "type": "event"
    },
    {
      "anonymous": false,
      "inputs": [
        {
          "indexed": false,
          "internalType": "address",
          "name": "userAddress",
          "type": "address"
        },
        {
          "indexed": false,
          "internalType": "string",
          "name": "name",
          "type": "string"
        },
        {
          "indexed": false,
          "internalType": "string",
          "name": "email",
          "type": "string"
        }
      ],
      "name": "UserAdded",
      "type": "event"
    },
    {
      "inputs": [
        {
          "components": [
            {
              "internalType": "string",
              "name": "cid",
              "type": "string"
            },
            {
              "internalType": "address",
              "name": "userAddress",
              "type": "address"
            },
            {
              "internalType": "address",
              "name": "issuerAddress",
              "type": "address"
            }
          ],
          "internalType": "struct Nareswara.Certificate[]",
          "name": "_certificates",
          "type": "tuple[]"
        }
      ],
      "name": "addCertificate",
      "outputs": [],
      "stateMutability": "nonpayable",
      "type": "function"
    },
    {
      "inputs": [
        {
          "internalType": "address",
          "name": "_organizationAddress",
          "type": "address"
        },
        {
          "internalType": "string",
          "name": "_eventName",
          "type": "string"
        },
        {
          "internalType": "string[]",
          "name": "_participants",
          "type": "string[]"
        }
      ],
      "name": "addEvent",
      "outputs": [],
      "stateMutability": "nonpayable",
      "type": "function"
    },
    {
      "inputs": [
        {
          "internalType": "address",
          "name": "_organizationAddress",
          "type": "address"
        },
        {
          "internalType": "string",
          "name": "_name",
          "type": "string"
        },
        {
          "internalType": "string",
          "name": "_email",
          "type": "string"
        }
      ],
      "name": "addOrganization",
      "outputs": [],
      "stateMutability": "nonpayable",
      "type": "function"
    },
    {
      "inputs": [
        {
          "internalType": "address",
          "name": "_userAddress",
          "type": "address"
        },
        {
          "internalType": "string",
          "name": "_name",
          "type": "string"
        },
        {
          "internalType": "string",
          "name": "_email",
          "type": "string"
        }
      ],
      "name": "addUser",
      "outputs": [],
      "stateMutability": "nonpayable",
      "type": "function"
    },
    {
      "inputs": [
        {
          "internalType": "address",
          "name": "_userAddress",
          "type": "address"
        }
      ],
      "name": "getAllCertificate",
      "outputs": [
        {
          "components": [
            {
              "internalType": "string",
              "name": "cid",
              "type": "string"
            },
            {
              "internalType": "address",
              "name": "userAddress",
              "type": "address"
            },
            {
              "internalType": "address",
              "name": "issuerAddress",
              "type": "address"
            }
          ],
          "internalType": "struct Nareswara.Certificate[]",
          "name": "",
          "type": "tuple[]"
        }
      ],
      "stateMutability": "view",
      "type": "function"
    },
    {
      "inputs": [
        {
          "internalType": "address",
          "name": "_organizationAddress",
          "type": "address"
        }
      ],
      "name": "getAllEvent",
      "outputs": [
        {
          "components": [
            {
              "internalType": "string",
              "name": "name",
              "type": "string"
            },
            {
              "internalType": "string[]",
              "name": "participants",
              "type": "string[]"
            }
          ],
          "internalType": "struct Nareswara.Event[]",
          "name": "",
          "type": "tuple[]"
        }
      ],
      "stateMutability": "view",
      "type": "function"
    },
    {
      "inputs": [
        {
          "internalType": "address",
          "name": "_organizationAddress",
          "type": "address"
        }
      ],
      "name": "getOrganizationExists",
      "outputs": [
        {
          "internalType": "bool",
          "name": "",
          "type": "bool"
        }
      ],
      "stateMutability": "view",
      "type": "function"
    },
    {
      "inputs": [
        {
          "internalType": "address",
          "name": "_userAddress",
          "type": "address"
        }
      ],
      "name": "getUserExists",
      "outputs": [
        {
          "internalType": "bool",
          "name": "",
          "type": "bool"
        }
      ],
      "stateMutability": "view",
      "type": "function"
    },
    {
      "inputs": [
        {
          "internalType": "address",
          "name": "",
          "type": "address"
        }
      ],
      "name": "organizations",
      "outputs": [
        {
          "internalType": "address",
          "name": "id",
          "type": "address"
        },
        {
          "internalType": "string",
          "name": "name",
          "type": "string"
        },
        {
          "internalType": "string",
          "name": "email",
          "type": "string"
        }
      ],
      "stateMutability": "view",
      "type": "function"
    },
    {
      "inputs": [
        {
          "internalType": "address",
          "name": "",
          "type": "address"
        }
      ],
      "name": "users",
      "outputs": [
        {
          "internalType": "address",
          "name": "id",
          "type": "address"
        },
        {
          "internalType": "string",
          "name": "name",
          "type": "string"
        },
        {
          "internalType": "string",
          "name": "email",
          "type": "string"
        }
      ],
      "stateMutability": "view",
      "type": "function"
    },
    {
      "inputs": [
        {
          "internalType": "address",
          "name": "_userAddress",
          "type": "address"
        },
        {
          "internalType": "string",
          "name": "_cid",
          "type": "string"
        }
      ],
      "name": "verifyCertificate",
      "outputs": [
        {
          "internalType": "bool",
          "name": "",
          "type": "bool"
        }
      ],
      "stateMutability": "view",
      "type": "function"
    }
  ],
  "bytecode": "0x608060405234801561001057600080fd5b5061245f806100206000396000f3fe608060405234801561001057600080fd5b50600436106100a95760003560e01c80635a1f7406116100715780635a1f740614610176578063a87430ba146101a8578063ca3aad7e146101da578063d256f3d8146101f6578063d7554a6814610226578063e6995a6614610242576100a9565b80630159c1b9146100ae5780630931d3af146100ca578063295e80dc146100fa57806332cc82b31461012a5780633d47a3541461015a575b600080fd5b6100c860048036038101906100c3919061182c565b610272565b005b6100e460048036038101906100df91906118b7565b61036b565b6040516100f191906118ff565b60405180910390f35b610114600480360381019061010f91906118b7565b610404565b6040516101219190611aba565b60405180910390f35b610144600480360381019061013f9190611adc565b6105e2565b60405161015191906118ff565b60405180910390f35b610174600480360381019061016f9190611b38565b610820565b005b610190600480360381019061018b91906118b7565b610a51565b60405161019f93929190611c1c565b60405180910390f35b6101c260048036038101906101bd91906118b7565b610bab565b6040516101d193929190611c1c565b60405180910390f35b6101f460048036038101906101ef9190611dcc565b610d05565b005b610210600480360381019061020b91906118b7565b610efd565b60405161021d9190611fdd565b60405180910390f35b610240600480360381019061023b9190611b38565b611109565b005b61025c600480360381019061025791906118b7565b611336565b60405161026991906118ff565b60405180910390f35b60006040518060400160405280848152602001838152509050600160008573ffffffffffffffffffffffffffffffffffffffff1673ffffffffffffffffffffffffffffffffffffffff168152602001908152602001600020600301819080600181540180825580915050600190039060005260206000209060020201600090919091909150600082015181600001908161030c9190612215565b5060208201518160010190805190602001906103299291906114b4565b5050507f153594e72b817d485e2869681e89c7d4380a6c15a2024abbeefdc6e75995102f848460405161035d9291906122e7565b60405180910390a150505050565b60008173ffffffffffffffffffffffffffffffffffffffff166000808473ffffffffffffffffffffffffffffffffffffffff1673ffffffffffffffffffffffffffffffffffffffff16815260200190815260200160002060000160009054906101000a900473ffffffffffffffffffffffffffffffffffffffff1673ffffffffffffffffffffffffffffffffffffffff16149050919050565b60606000808373ffffffffffffffffffffffffffffffffffffffff1673ffffffffffffffffffffffffffffffffffffffff168152602001908152602001600020600301805480602002602001604051908101604052809291908181526020016000905b828210156105d7578382906000526020600020906003020160405180606001604052908160008201805461049a9061202e565b80601f01602080910402602001604051908101604052809291908181526020018280546104c69061202e565b80156105135780601f106104e857610100808354040283529160200191610513565b820191906000526020600020905b8154815290600101906020018083116104f657829003601f168201915b505050505081526020016001820160009054906101000a900473ffffffffffffffffffffffffffffffffffffffff1673ffffffffffffffffffffffffffffffffffffffff1673ffffffffffffffffffffffffffffffffffffffff1681526020016002820160009054906101000a900473ffffffffffffffffffffffffffffffffffffffff1673ffffffffffffffffffffffffffffffffffffffff1673ffffffffffffffffffffffffffffffffffffffff168152505081526020019060010190610467565b505050509050919050565b6000806000808573ffffffffffffffffffffffffffffffffffffffff1673ffffffffffffffffffffffffffffffffffffffff168152602001908152602001600020600301805480602002602001604051908101604052809291908181526020016000905b828210156107b657838290600052602060002090600302016040518060600160405290816000820180546106799061202e565b80601f01602080910402602001604051908101604052809291908181526020018280546106a59061202e565b80156106f25780601f106106c7576101008083540402835291602001916106f2565b820191906000526020600020905b8154815290600101906020018083116106d557829003601f168201915b505050505081526020016001820160009054906101000a900473ffffffffffffffffffffffffffffffffffffffff1673ffffffffffffffffffffffffffffffffffffffff1673ffffffffffffffffffffffffffffffffffffffff1681526020016002820160009054906101000a900473ffffffffffffffffffffffffffffffffffffffff1673ffffffffffffffffffffffffffffffffffffffff1673ffffffffffffffffffffffffffffffffffffffff168152505081526020019060010190610646565b50505050905060005b8151811015610813576107f08282815181106107de576107dd612317565b5b602002602001015160000151856113d0565b156108005760019250505061081a565b808061080b90612375565b9150506107bf565b5060009150505b92915050565b8273ffffffffffffffffffffffffffffffffffffffff16600160008573ffffffffffffffffffffffffffffffffffffffff1673ffffffffffffffffffffffffffffffffffffffff16815260200190815260200160002060000160009054906101000a900473ffffffffffffffffffffffffffffffffffffffff1673ffffffffffffffffffffffffffffffffffffffff16036108f0576040517f08c379a00000000000000000000000000000000000000000000000000000000081526004016108e790612409565b60405180910390fd5b82600160008573ffffffffffffffffffffffffffffffffffffffff1673ffffffffffffffffffffffffffffffffffffffff16815260200190815260200160002060000160006101000a81548173ffffffffffffffffffffffffffffffffffffffff021916908373ffffffffffffffffffffffffffffffffffffffff16021790555081600160008573ffffffffffffffffffffffffffffffffffffffff1673ffffffffffffffffffffffffffffffffffffffff16815260200190815260200160002060010190816109c09190612215565b5080600160008573ffffffffffffffffffffffffffffffffffffffff1673ffffffffffffffffffffffffffffffffffffffff1681526020019081526020016000206002019081610a109190612215565b507ff099cf61e87eac71ecd300f54fdbc2f72ede778301f0103622a552a575e0d0c2838383604051610a4493929190611c1c565b60405180910390a1505050565b60016020528060005260406000206000915090508060000160009054906101000a900473ffffffffffffffffffffffffffffffffffffffff1690806001018054610a9a9061202e565b80601f0160208091040260200160405190810160405280929190818152602001828054610ac69061202e565b8015610b135780601f10610ae857610100808354040283529160200191610b13565b820191906000526020600020905b815481529060010190602001808311610af657829003601f168201915b505050505090806002018054610b289061202e565b80601f0160208091040260200160405190810160405280929190818152602001828054610b549061202e565b8015610ba15780601f10610b7657610100808354040283529160200191610ba1565b820191906000526020600020905b815481529060010190602001808311610b8457829003601f168201915b5050505050905083565b60006020528060005260406000206000915090508060000160009054906101000a900473ffffffffffffffffffffffffffffffffffffffff1690806001018054610bf49061202e565b80601f0160208091040260200160405190810160405280929190818152602001828054610c209061202e565b8015610c6d5780601f10610c4257610100808354040283529160200191610c6d565b820191906000526020600020905b815481529060010190602001808311610c5057829003601f168201915b505050505090806002018054610c829061202e565b80601f0160208091040260200160405190810160405280929190818152602001828054610cae9061202e565b8015610cfb5780601f10610cd057610100808354040283529160200191610cfb565b820191906000526020600020905b815481529060010190602001808311610cde57829003601f168201915b5050505050905083565b60005b8151811015610ef95760006040518060600160405280848481518110610d3157610d30612317565b5b6020026020010151600001518152602001848481518110610d5557610d54612317565b5b60200260200101516020015173ffffffffffffffffffffffffffffffffffffffff168152602001848481518110610d8f57610d8e612317565b5b60200260200101516040015173ffffffffffffffffffffffffffffffffffffffff168152509050600080848481518110610dcc57610dcb612317565b5b60200260200101516020015173ffffffffffffffffffffffffffffffffffffffff1673ffffffffffffffffffffffffffffffffffffffff1681526020019081526020016000206003018190806001815401808255809150506001900390600052602060002090600302016000909190919091506000820151816000019081610e549190612215565b5060208201518160010160006101000a81548173ffffffffffffffffffffffffffffffffffffffff021916908373ffffffffffffffffffffffffffffffffffffffff16021790555060408201518160020160006101000a81548173ffffffffffffffffffffffffffffffffffffffff021916908373ffffffffffffffffffffffffffffffffffffffff1602179055505050508080610ef190612375565b915050610d08565b5050565b6060600160008373ffffffffffffffffffffffffffffffffffffffff1673ffffffffffffffffffffffffffffffffffffffff168152602001908152602001600020600301805480602002602001604051908101604052809291908181526020016000905b828210156110fe5783829060005260206000209060020201604051806040016040529081600082018054610f949061202e565b80601f0160208091040260200160405190810160405280929190818152602001828054610fc09061202e565b801561100d5780601f10610fe25761010080835404028352916020019161100d565b820191906000526020600020905b815481529060010190602001808311610ff057829003601f168201915b5050505050815260200160018201805480602002602001604051908101604052809291908181526020016000905b828210156110e757838290600052602060002001805461105a9061202e565b80601f01602080910402602001604051908101604052809291908181526020018280546110869061202e565b80156110d35780601f106110a8576101008083540402835291602001916110d3565b820191906000526020600020905b8154815290600101906020018083116110b657829003601f168201915b50505050508152602001906001019061103b565b505050508152505081526020019060010190610f61565b505050509050919050565b8273ffffffffffffffffffffffffffffffffffffffff166000808573ffffffffffffffffffffffffffffffffffffffff1673ffffffffffffffffffffffffffffffffffffffff16815260200190815260200160002060000160009054906101000a900473ffffffffffffffffffffffffffffffffffffffff1673ffffffffffffffffffffffffffffffffffffffff16036111d8576040517f08c379a00000000000000000000000000000000000000000000000000000000081526004016111cf90612409565b60405180910390fd5b826000808573ffffffffffffffffffffffffffffffffffffffff1673ffffffffffffffffffffffffffffffffffffffff16815260200190815260200160002060000160006101000a81548173ffffffffffffffffffffffffffffffffffffffff021916908373ffffffffffffffffffffffffffffffffffffffff160217905550816000808573ffffffffffffffffffffffffffffffffffffffff1673ffffffffffffffffffffffffffffffffffffffff16815260200190815260200160002060010190816112a69190612215565b50806000808573ffffffffffffffffffffffffffffffffffffffff1673ffffffffffffffffffffffffffffffffffffffff16815260200190815260200160002060020190816112f59190612215565b507f8eab1db142a914aff8b515eedb9177bd7effaef6d714c41e30bdf1520677860783838360405161132993929190611c1c565b60405180910390a1505050565b60008173ffffffffffffffffffffffffffffffffffffffff16600160008473ffffffffffffffffffffffffffffffffffffffff1673ffffffffffffffffffffffffffffffffffffffff16815260200190815260200160002060000160009054906101000a900473ffffffffffffffffffffffffffffffffffffffff1673ffffffffffffffffffffffffffffffffffffffff16149050919050565b6000808390506000839050600082519050815181146113f557600093505050506114ae565b60005b818110156114a55782818151811061141357611412612317565b5b602001015160f81c60f81b7effffffffffffffffffffffffffffffffffffffffffffffffffffffffffffff191684828151811061145357611452612317565b5b602001015160f81c60f81b7effffffffffffffffffffffffffffffffffffffffffffffffffffffffffffff1916146114925760009450505050506114ae565b808061149d90612375565b9150506113f8565b50600193505050505b92915050565b8280548282559060005260206000209081019282156114fc579160200282015b828111156114fb5782518290816114eb9190612215565b50916020019190600101906114d4565b5b509050611509919061150d565b5090565b5b8082111561152d57600081816115249190611531565b5060010161150e565b5090565b50805461153d9061202e565b6000825580601f1061154f575061156e565b601f01602090049060005260206000209081019061156d9190611571565b5b50565b5b8082111561158a576000816000905550600101611572565b5090565b6000604051905090565b600080fd5b600080fd5b600073ffffffffffffffffffffffffffffffffffffffff82169050919050565b60006115cd826115a2565b9050919050565b6115dd816115c2565b81146115e857600080fd5b50565b6000813590506115fa816115d4565b92915050565b600080fd5b600080fd5b6000601f19601f8301169050919050565b7f4e487b7100000000000000000000000000000000000000000000000000000000600052604160045260246000fd5b6116538261160a565b810181811067ffffffffffffffff821117156116725761167161161b565b5b80604052505050565b600061168561158e565b9050611691828261164a565b919050565b600067ffffffffffffffff8211156116b1576116b061161b565b5b6116ba8261160a565b9050602081019050919050565b82818337600083830152505050565b60006116e96116e484611696565b61167b565b90508281526020810184848401111561170557611704611605565b5b6117108482856116c7565b509392505050565b600082601f83011261172d5761172c611600565b5b813561173d8482602086016116d6565b91505092915050565b600067ffffffffffffffff8211156117615761176061161b565b5b602082029050602081019050919050565b600080fd5b600061178a61178584611746565b61167b565b905080838252602082019050602084028301858111156117ad576117ac611772565b5b835b818110156117f457803567ffffffffffffffff8111156117d2576117d1611600565b5b8086016117df8982611718565b855260208501945050506020810190506117af565b5050509392505050565b600082601f83011261181357611812611600565b5b8135611823848260208601611777565b91505092915050565b60008060006060848603121561184557611844611598565b5b6000611853868287016115eb565b935050602084013567ffffffffffffffff8111156118745761187361159d565b5b61188086828701611718565b925050604084013567ffffffffffffffff8111156118a1576118a061159d565b5b6118ad868287016117fe565b9150509250925092565b6000602082840312156118cd576118cc611598565b5b60006118db848285016115eb565b91505092915050565b60008115159050919050565b6118f9816118e4565b82525050565b600060208201905061191460008301846118f0565b92915050565b600081519050919050565b600082825260208201905092915050565b6000819050602082019050919050565b600081519050919050565b600082825260208201905092915050565b60005b83811015611980578082015181840152602081019050611965565b60008484015250505050565b600061199782611946565b6119a18185611951565b93506119b1818560208601611962565b6119ba8161160a565b840191505092915050565b6119ce816115c2565b82525050565b600060608301600083015184820360008601526119f1828261198c565b9150506020830151611a0660208601826119c5565b506040830151611a1960408601826119c5565b508091505092915050565b6000611a3083836119d4565b905092915050565b6000602082019050919050565b6000611a508261191a565b611a5a8185611925565b935083602082028501611a6c85611936565b8060005b85811015611aa85784840389528151611a898582611a24565b9450611a9483611a38565b925060208a01995050600181019050611a70565b50829750879550505050505092915050565b60006020820190508181036000830152611ad48184611a45565b905092915050565b60008060408385031215611af357611af2611598565b5b6000611b01858286016115eb565b925050602083013567ffffffffffffffff811115611b2257611b2161159d565b5b611b2e85828601611718565b9150509250929050565b600080600060608486031215611b5157611b50611598565b5b6000611b5f868287016115eb565b935050602084013567ffffffffffffffff811115611b8057611b7f61159d565b5b611b8c86828701611718565b925050604084013567ffffffffffffffff811115611bad57611bac61159d565b5b611bb986828701611718565b9150509250925092565b611bcc816115c2565b82525050565b600082825260208201905092915050565b6000611bee82611946565b611bf88185611bd2565b9350611c08818560208601611962565b611c118161160a565b840191505092915050565b6000606082019050611c316000830186611bc3565b8181036020830152611c438185611be3565b90508181036040830152611c578184611be3565b9050949350505050565b600067ffffffffffffffff821115611c7c57611c7b61161b565b5b602082029050602081019050919050565b600080fd5b600080fd5b600060608284031215611cad57611cac611c8d565b5b611cb7606061167b565b9050600082013567ffffffffffffffff811115611cd757611cd6611c92565b5b611ce384828501611718565b6000830152506020611cf7848285016115eb565b6020830152506040611d0b848285016115eb565b60408301525092915050565b6000611d2a611d2584611c61565b61167b565b90508083825260208201905060208402830185811115611d4d57611d4c611772565b5b835b81811015611d9457803567ffffffffffffffff811115611d7257611d71611600565b5b808601611d7f8982611c97565b85526020850194505050602081019050611d4f565b5050509392505050565b600082601f830112611db357611db2611600565b5b8135611dc3848260208601611d17565b91505092915050565b600060208284031215611de257611de1611598565b5b600082013567ffffffffffffffff811115611e0057611dff61159d565b5b611e0c84828501611d9e565b91505092915050565b600081519050919050565b600082825260208201905092915050565b6000819050602082019050919050565b600081519050919050565b600082825260208201905092915050565b6000819050602082019050919050565b6000611e79838361198c565b905092915050565b6000602082019050919050565b6000611e9982611e41565b611ea38185611e4c565b935083602082028501611eb585611e5d565b8060005b85811015611ef15784840389528151611ed28582611e6d565b9450611edd83611e81565b925060208a01995050600181019050611eb9565b50829750879550505050505092915050565b60006040830160008301518482036000860152611f20828261198c565b91505060208301518482036020860152611f3a8282611e8e565b9150508091505092915050565b6000611f538383611f03565b905092915050565b6000602082019050919050565b6000611f7382611e15565b611f7d8185611e20565b935083602082028501611f8f85611e31565b8060005b85811015611fcb5784840389528151611fac8582611f47565b9450611fb783611f5b565b925060208a01995050600181019050611f93565b50829750879550505050505092915050565b60006020820190508181036000830152611ff78184611f68565b905092915050565b7f4e487b7100000000000000000000000000000000000000000000000000000000600052602260045260246000fd5b6000600282049050600182168061204657607f821691505b60208210810361205957612058611fff565b5b50919050565b60008190508160005260206000209050919050565b60006020601f8301049050919050565b600082821b905092915050565b6000600883026120c17fffffffffffffffffffffffffffffffffffffffffffffffffffffffffffffffff82612084565b6120cb8683612084565b95508019841693508086168417925050509392505050565b6000819050919050565b6000819050919050565b600061211261210d612108846120e3565b6120ed565b6120e3565b9050919050565b6000819050919050565b61212c836120f7565b61214061213882612119565b848454612091565b825550505050565b600090565b612155612148565b612160818484612123565b505050565b5b818110156121845761217960008261214d565b600181019050612166565b5050565b601f8211156121c95761219a8161205f565b6121a384612074565b810160208510156121b2578190505b6121c66121be85612074565b830182612165565b50505b505050565b600082821c905092915050565b60006121ec600019846008026121ce565b1980831691505092915050565b600061220583836121db565b9150826002028217905092915050565b61221e82611946565b67ffffffffffffffff8111156122375761223661161b565b5b612241825461202e565b61224c828285612188565b600060209050601f83116001811461227f576000841561226d578287015190505b61227785826121f9565b8655506122df565b601f19841661228d8661205f565b60005b828110156122b557848901518255600182019150602085019450602081019050612290565b868310156122d257848901516122ce601f8916826121db565b8355505b6001600288020188555050505b505050505050565b60006040820190506122fc6000830185611bc3565b818103602083015261230e8184611be3565b90509392505050565b7f4e487b7100000000000000000000000000000000000000000000000000000000600052603260045260246000fd5b7f4e487b7100000000000000000000000000000000000000000000000000000000600052601160045260246000fd5b6000612380826120e3565b91507fffffffffffffffffffffffffffffffffffffffffffffffffffffffffffffffff82036123b2576123b1612346565b5b600182019050919050565b7f54686973207573657220616c7265616479206578697374732e00000000000000600082015250565b60006123f3601983611bd2565b91506123fe826123bd565b602082019050919050565b60006020820190508181036000830152612422816123e6565b905091905056fea2646970667358221220c7d669dd68c4908012d7cc5ab3fbebe66f067421ee6693d06240a8e93a71aa0364736f6c63430008110033",
  "linkReferences": {},
  "deployedLinkReferences": {}
}